:020000041000EA
:1000000000B5324B212058609868022188439860DF
:10001000D860186158612E4B002199600221596106
:100020000121F02299502B49196001219960352056
:1000300000F044F80222904214D00621196600F024
:1000400034F8196E01211966002018661A6600F04E
:100050002CF8196E196E196E052000F02FF8012189
:100060000842F9D1002199601B49196000215960AB
:100070001A491B48016001219960EB211966A021F2
:10008000196600F012F800219960164914480160C1
:100090000121996001BC002800D000471248134993
:1000A000086003C880F30888084703B5996A0420EC
:1000B0000142FBD001200142F8D103BD02B5186610
:1000C0001866FFF7F2FF186E186E02BD00000240BE
:1000D000000000180000070000035F00212200005C
:1000E000F4000018222000A00001001008ED00E03C
:1000F00000000000000000000000000074B24E7A12
:1001000000200420F7010010C3010010C5010010F9
:10011000C1010010C1010010C1010010C101001097
:10012000C1010010C1010010C1010010C701001081
:10013000C1010010C1010010C9010010CB01001065
:10014000CD010010CD010010CD010010CD01001037
:10015000CD010010CD010010CD010010CD01001027
:10016000CD010010CD010010CD010010CD01001017
:10017000CD010010CD010010CD010010CD01001007
:10018000CD010010CD010010CD010010CD010010F7
:10019000CD010010CD010010CD010010CD010010E7
:1001A000CD010010CD010010CD010010CD010010D7
:1001B000CD010010CD010010CD010010CD010010C7
:1001C00000BE00BE00BE00BE00BE00BE00F04BF888
:1001D000103800BEF2EB887148680010706800109B
:1001E0003402001090A31AE700202149086006C8D5
:1001F00081F3088810471F48006800282FD10DA4FC
:100200000ECC002902D000F012F8F9E71A491B4A77
:10021000002000E001C19142FCD1194988471949E9
:1002200088471949884700BEFDE701C901C29A42C3
:10023000FBD3704770680010C00000205C030020F2
:100240000C6B001000000420000004200C6B001058
:1002500000100420001004200000000070470B482C
:1002600002F046FE0047EFF30580C0B27047000081
:1002700008ED00E0000000D060030020540D0020D5
:10028000C12900106D060010B12A00105756000059
:1002900006005250ABB36053A066001006005250E7
:1002A000861C0302B0660010060052505422A29D24
:1002B000C066001005005250DE65F4680C6B00103B
:1002C000F8B5C04610B5064C2378002B07D1054B76
:1002D000002B02D0044800E000BF0123237010BDB2
:1002E0006006002000000000905E0010044B10B576
:1002F000002B03D00349044800E000BF10BDC046F6
:100300000000000064060020905E0010F0B5DE469C
:1003100057464E464546E0B5CB4CA54407AC05A82C
:1003200000F07EFC06AF200000F0B0FC380000F0CA
:1003300079FEC64EC64D200005A92C60376000F03E
:10034000BDFC306805A900F08DFEC24B0021186885
:100350009B4600F05BFCC04C02E0643001F0E6FE1E
:10036000206800F003FA0028F7D05B4601211868E6
:1003700000F04CFC286800F057FD306800F0AAFE41
:10038000336880279A460023002699461C002D6872
:1003900001F0BAFF00292ED0FA220023920002F0C9
:1003A0001BFE4B468046002B2DD0012B00D1B9E01F
:1003B000022B4ED1013E002E00D0D3E003231426A1
:1003C0009946280000F07CFC01F09EFF002931D006
:1003D000FA220023920002F0FFFD42460300821A37
:1003E000092AD5D840460A30C01A01F09FFE01F014
:1003F0008BFF0029D0D1FA21890002F0ABFD4B46DA
:100400008046002BD1D1280000F05AFD002C73D17A
:1004100000F0A0FD20230100802228000194009715
:1004200000F05AFD2800013400F04AFC01F06CFF96
:100430000029CDD1FA21890002F08CFD424603004B
:10044000821A092AA4D840460A30C01A01F06EFE6A
:10045000CDE7280000F034FD5B4656221B68FF32D2
:100460009A5C002A00D0BBE0AA2252009A5C002AC3
:1004700000D0A6E05822FF329A5C002A7ED1AC223E
:1004800052009B5C002B00D08DE0504600F0ECFD4C
:10049000002896D0504600F005FE030603909B0FFF
:1004A00000D1CCE0022B00D1C4E0022000F05AFDC4
:1004B0000100002301935033280000931022403B99
:1004C00000F00AFD039B9806800F012800D1ACE0E4
:1004D000022800D1A4E0002800D19CE0062000F012
:1004E00041FD010000230193603300931022280096
:1004F000503B00F0F1FC64E700F02CFD4B4601930B
:100500007B4201000093802220232800013F00F05D
:10051000E3FC0024002F00D053E701230026002431
:1005200099464EE7F00002F059FF02F093FF02F007
:100530006DFF0700A04262D000F00CFD0023010017
:100540000193009380222800203300F0C5FC3C007A
:10055000962301365B009E4200DA32E702236426CE
:1005600099462EE700F0F6FC00230100019300936A
:1005700080222800203300F0AFFC22E70A2000F0A0
:10058000F1FC002301932033010010220093280086
:10059000103B00F0A1FC5B46AC221B6852009B5C48
:1005A000002B00D171E70A2000F0DCFC002301934E
:1005B00030330100009310222800203B00F08CFC17
:1005C00063E7082000F0CEFC002301931033010004
:1005D00000931022280000F07FFC5B461B6849E76F
:1005E000092000F0BFFC00230100019300931022BA
:1005F0001033280000F070FC5B461B6834E700F005
:10060000ADFC0023010001930093802228002033D9
:1006100000F062FC9CE7033000F0A4FC010061E7FD
:10062000052000F09FFC01005CE7042000F09AFC2C
:10063000010057E7002000F095FC010039E7072092
:1006400000F090FC010034E7D4EEFFFF88060020A4
:10065000840600207C0600208C06002010B50400D3
:1006600004F0A8F9200000F08BFCF9E710B5DAB02F
:1006700005F096FB03AC05F085FA684600F02AF811
:10068000200000F097F86A46064B69461A60064B50
:1006900020001C6000F038F9044803F09FFA2000A5
:1006A000FFF7DCFF8C0600207C0600200D03001005
:1006B000032808D1D0221206054B52681B68D206C7
:1006C00002D402229A60704701229A60FBE7C0467A
:1006D0008006002070B51D4D04004560172000F015
:1006E00011FF032000F00EFF042000F00BFF052097
:1006F00000F008FFD02380221B0612049A62082211
:100700009A6208329A6210329A62002117201F3AC8
:1007100000F088FE00220121032000F083FE002269
:100720000121042000F07EFE00220121052000F0BE
:1007300079FE0023A360064B25601C600122042182
:100740000320044B00F086FE200070BD38008000BE
:1007500080060020B1060010D0231B065A684368AB
:100760001A4080231B045340036070470368012034
:10077000DB0D98437047C046036801205B0998432E
:100780007047C046816802004B1E58424341D8B2B0
:10079000012901D1002393607047C046816802009F
:1007A0008B1E58424341D8B2022901D100239360E5
:1007B0007047C04670B50500122000F0A3FE13205C
:1007C00000F0A0FE142000F09DFE152000F09AFE1F
:1007D000162000F097FE062000F094FE072000F09F
:1007E00091FE082000F08EFE092000F08BFE0A200A
:1007F00000F088FE0B2000F085FE0C2000F082FE49
:100800000D2000F07FFED02480232406DB02A362AB
:1008100080231B03A36280235B03A36280239B03CB
:10082000A3628023DB03A36200220121122000F0D7
:10083000F9FD00220121132000F0F4FD0022012126
:10084000142000F0EFFD00220121152000F0EAFD48
:1008500000220121162000F0E5FD4023A362403371
:10086000A3628033A3620133FF33A3628023DB00E2
:10087000A36280231B01A36280235B01A362002289
:100880000121062000F0CEFD00220121072000F00A
:10089000C9FD00220121082000F0C4FD0022012131
:1008A000092000F0BFFD002201210A2000F0BAFD5E
:1008B000002201210B2000F0B5FD002201210C20B7
:1008C00000F0B0FD80239B016362281DA3610A2212
:1008D0007F2102F069FF00242800A022EC812C6116
:1008E00008495200143002F065FFAA235B002C6017
:1008F000EC5258230026FF33EE5401332800EE5407
:1009000070BDC046905E001001607047F0B557465C
:10091000DE464E464546AA23E0B583B001915B0012
:10092000C25C58230092FF33C35C8246002B01D087
:100930000232009253461D1D092353449B465246E2
:100940000E239B1A98460123D0265F462C00C346EF
:100950009946A84636065B464D461B199D400A201F
:1009600075620021B56101F0C9FB7368B5626279F7
:10097000DB045B0E227063710134BC42EBD1534641
:1009800018684546002800D10CE1FFF7E5FE534604
:100990001868FFF7EBFE002800D105E129230124A8
:1009A000019A1370009A01219446930063441B013D
:1009B0001433534498460122002352429946434639
:1009C000934600936879AC4600230500009A31E015
:1009D0000420FF30864200D19CE00130864261D283
:1009E0000220FF30864200D18AE00130864200D0EA
:1009F00072E060460078184101420DD0280018418D
:100A0000014209D10127B846AB2650464746760039
:100A1000805D78405746B855AC2056464000305C63
:100A2000002803D03920019E3055013401330232B1
:100A3000072B1BD0052C19DC8020168840000642AD
:100A4000C6D1080098400542F0D15846013000D187
:100A500074E05846F02770403F023842E6D10198D2
:100A60000133065502320134072BE3D1009B654662
:100A70001033009308239C46E1444B460135282B54
:100A8000A0D1052C06DC0622019B0021121B18199F
:100A900002F08AFE200003B0F0BCBB46B246A94675
:100AA000A046F0BD864217D1604600781841014249
:100AB00063D02800184101425FD1AC26504601277F
:100AC0007600805D78405746B8550028AED0E020CB
:100AD000019E30550134A9E7604600781841014273
:100AE000A4D0280018410142A0D10127B8465826B9
:100AF00050464746FF36805D78405746B85595E7E3
:100B000008009840284046427041AA265746760081
:100B1000B8558BE7604600781841014200D185E75F
:100B200028001841014200D080E756275046012690
:100B3000FF37C05D70405646F05577E78020400192
:100B400006421FD056275046FF37C05D002803D10C
:100B5000019FE13038550134C0208001804680205B
:100B6000400183468027BF013E4200D177E7E22063
:100B7000019FC3463855013471E7AC20564640000A
:100B8000305CA2E756275046FF37C05D002803D0EF
:100B9000E120019F385501348020800180460020EB
:100BA0008346DFE70024FDE653461868FFF7E4FDBF
:100BB000002804D02B23019A01241370F2E6534637
:100BC0001868FFF7DFFD002807D0009B9B0712D4B1
:100BD0005223019A01241370E4E653461868FFF784
:100BE000DDFD0028DED0009B9B0709D45123019A2C
:100BF00001241370D6E64F23019A01241370D1E625
:100C00005023019A01241370CCE6C046D0238022E1
:100C10001B069201002901D05A6170479A61FCE7D6
:100C200010B504000B490C4803F060F803210020C4
:100C300000F0E0FB0321012000F0DCFB0022012199
:100C4000002000F0EFFB00220121012000F0EAFB70
:100C5000200010BD801A060004030020002000B50B
:100C600083B00090C9B2024803F06AF803B000BD37
:100C700004030020002000B583B00090C9B20248F0
:100C800003F0C6F803B000BD04030020002310B534
:100C9000036004000E2000F035FC182000F032FC48
:100CA000D023802280211B06D20149045A620A20E7
:100CB00059625A6101F03AFA200010BD0160704794
:100CC00003008C33F0B51C00802357464E46454642
:100CD000DE469A4680339946803398460023E0B535
:100CE00089B00293E0234A499B000193494B0200DB
:100CF0008C468027A026C0250393B023624404902D
:100D00000692BF00B600AD00059300200499404B49
:100D10007F22C8540598404BA346C85421233F481E
:100D20000B523F4BCA54086805233C21069A079092
:100D3000FFF794FF40230499354ABC468B542100A9
:100D400080202F0080392EE0002540335446029A3F
:100D50008A1A145D002C00D12B004C46145D002C27
:100D600000D003434446145D5B10002C00D00343C5
:100D70006446145D5B10002C00D00343945D5B104F
:100D8000002C00D00343D45D5B10002C00D0034343
:100D9000019C5B10125D002A00D00343039A8B5420
:100DA00001318B4505D00B78002BCDD02025602359
:100DB000CCE7049B3C211B68069A07930798812384
:100DC0003D006746FFF74AFF1649039A8C46624486
:100DD00003928022D20094465C46019A059B6244AD
:100DE0000192029A0133DBB2624405936444029299
:100DF000654466446744E044E144E244B42B84D152
:100E000009B0F0BCBB46B246A946A046F0BDC046FC
:100E10000C100000011000000D1000000E1000006A
:100E20001010000000FCFFFFF8B5D02580278023BC
:100E3000FA2604002D067F04DB01B600AF61300006
:100E4000AB6101F073F930006F6101F06FF9124B83
:100E5000124A3C21E250124B124AE250124B134A02
:100E6000E250134B134AE250134B144AE2500A4B20
:100E70002068E2181423FFF7F1FE200080220021F1
:100E800052010C3002F090FC002320006360A3604C
:100E9000FFF716FFF8BDC0460C10000000AEA83FDB
:100EA00010100000D32040A114100000C8DA028105
:100EB000181000007FA4A6D51C100000808D14AF70
:100EC000802210B50021040052010C3002F06CFCAD
:100ED00000236360A36010BDF0B5CE464746150001
:100EE00080B5002B27DD9C468046089E079BF701B6
:100EF0000C37B844B444D418002D16DD1F2E1ED86C
:100F0000802307987F2805D80A781A40571EBA41CF
:100F100047463A545B1001D101318033013084429D
:100F2000F0D1803B5A1E9341C9188023994601365F
:100F3000C8446645E0D1C0BCB946B046F0BD802388
:100F400000205B1001D10131803301308542F8D19E
:100F5000E7E7C04600487047386000100048704717
:100F600038620010014B8000C05870479864001030
:100F70007047C0467047C0467047C0467047C0467D
:100F800010B582B0040001F0BFF900290BD0FA229D
:100F90000023920002F020F81D490A68801A0928EF
:100FA0000AD802B010BDFA21890001F0D3FF184918
:100FB0000A68801A0928F4D90A3200200A6004F06D
:100FC00021FC0028EDD069462000FFF79FFC002897
:100FD00006D1104C2378002B09D100232370E0E7C1
:100FE00003F058FC002809D003F05CFCD9E700238B
:100FF00000220121002004F021FCEEE76B460022D4
:101000000121002004F01AFC0122024B1A70C8E7EB
:10101000900600204C0D00207047C046002070470D
:101020007047C046F8B5002303600500112000F0AA
:1010300069FA102000F066FA022000F063FAD0246A
:1010400080238027042624067F029B02A3620022BD
:10105000676201216662112000F0E4F92800A761AF
:10106000A661F8BD0160704730B583B06B46DC1DEA
:101070000A230500220023706B21093B0068FFF75B
:10108000EDFDFF23220023706B212868FE3BFFF754
:10109000F1FD402320789843203843425841C0B2A4
:1010A00003B030BD30B583B06B46DC1D08230500AE
:1010B000220023706B21073B0068FFF7CFFDFF2361
:1010C000220023706B212868FE3BFFF7D3FD2078B8
:1010D00003B030BDD023802210B51B0682B052026F
:1010E0005A616A460E4B040093806B2101AA0223C9
:1010F0000068FFF7B3FD6A4609236B21137120686E
:1011000001AA083BFFF7AAFD6A46FF236B21137172
:101110002068FE3B01AAFFF7ADFD02B010BDC0463E
:1011200000B7FFFF00487047D065001000487047C7
:10113000E465001000487047AC65001070B50028E9
:101140000AD1C121174B18481B6889001A78827090
:101150005B78C370018070BD03281ED8114B8000DE
:10116000C558280004F034FEC0B2011C1F2800D965
:101170001F21C9B2002812D000230B48821CEC5C4E
:1011800001331480DCB20232A142F8D8C02301310D
:10119000C9B249009B001943DCE70020DBE70349A3
:1011A0000148D7E748020020AC06002002030000F7
:1011B000D0231B061B68F0B59A0045469046414671
:1011C000884ADE465258574693465A1E934130226B
:1011D0004E465B421A40844BE0B59C46834B082642
:1011E0009A4683B0624401923500083DEA08130034
:1011F000019908339B005C58002C23D05B46002BE0
:101200002AD001230F27994639002140274213D0C5
:101210004B4652464046AB4012581A420CD1072268
:1012200008002A40920090400200EB0870483C33CE
:101230009B001A502800D84724090135002C01D002
:10124000B542E1D30836282ECED103B0F0BCBB4660
:10125000B246A946A046F0BD0F2319002140234203
:1012600007D047460E3BAB406048C059184200D1FA
:101270008DE02309F11F002BE4D00F22100018404D
:101280001A420FD0012345468B40584A52591A4200
:1012900008D10722CB08114089008840544A3C33CA
:1012A0009B009850230AB11F002BCBD00F221000B7
:1012B00018401A420FD0012345468B404B4A5259E1
:1012C0001A4208D10722CB08114089008840484AB9
:1012D0003C339B009850230B711F002BB2D00F2280
:1012E000100018401A4241D1230C311F002BA9D005
:1012F0000F22100018401A4252D1230DF11E002B6C
:10130000A0D00F22100018401A425AD1230EB11E4D
:10131000002B97D00F22100018401A420FD0012343
:1013200045468B40314A52591A4208D10722CB0810
:101330001140890088402E4A3C339B009850240F6E
:10134000721E002C00D17DE7012351464046934098
:101350000958194200D075E70721D3080A409200C6
:1013600094403C33224A9B009C506BE70123454646
:101370008B401E4A52591A42B6D10722CB0811405F
:10138000890088401A4A3C339B009850ACE70723F9
:101390001D40AD00A940164B3C329200D15068E789
:1013A000012345468B40114A52591A42A5D10722C2
:1013B000CB081140890088400D4A3C339B0098506F
:1013C0009BE7012345468B40084A52591A429DD15A
:1013D0000722CB08114089008840054A3C339B0016
:1013E000985093E78C08002000410140200D002018
:1013F00000400140094A830094464022634410B5EE
:101400001C68C0006240C024144080225201134373
:101410001C60034B9C466044416010BD04C0014009
:10142000004001400A4B80009C4604236044002990
:1014300001D00C230821002A00D10B000268534080
:101440000C221A4080235B01184302607047C0469B
:1014500004C00140F8B51E00D0231B061C6807001D
:10146000631E9C41302364421C40224B15009C4665
:10147000C30807201A003840800081403C321E48D3
:10148000644492009B001150E418002D11D0802379
:101490009B011C43D02321601B061C68174FA4002E
:1014A0003B59002B11D0002E1ED03E51002D16D1DD
:1014B000F8BDC0239B011C43D02321601B061C6880
:1014C0000E4FA4003B59002BEDD1002EEED0002290
:1014D0000D200B493E5100F025F9002DE8D00121E7
:1014E0000D2000F0CFF8E3E70D20054900F00CFADD
:1014F000DBE7C04600410140004001408C0800206D
:10150000B11100100123D02283401206936293612F
:10151000094A83009446402263441968C0004A4047
:10152000C02111408022520113431960034B9C4695
:10153000052360444360704704C0014000400140FF
:1015400070B5EFF3108C72B60D4D2B68002BFCD0EC
:10155000BFF35F8F0724CB08C618C05C01230C4083
:10156000A3401C000440034207D103433370BFF380
:101570005F8F2C608CF3108870BD100001F09AFA18
:101580002C0100D0F8B54746CE46884680B5EFF32B
:10159000108C72B6214D2C68002CFCD0BFF35F8FED
:1015A0009A422CD8D4080727055D06190124174054
:1015B000BC402C421FD007210127894609E0D408EE
:1015C000055D06194C4639001440A1400C00294223
:1015D00011D001329342F2D201204042BFF35F8F1B
:1015E00000220E4B1A608CF3108800280FDBC0BC61
:1015F000B946B046F8BD2C4310003470EEE7BFF397
:101600005F8F00232B608CF31088012040424346FB
:10161000002BECD0089801F04DFAC0462C0100D008
:10162000024B18688007C00F7047C04600C00640D4
:101630000021044B044ABFF35F8F02C39342FAD1E7
:101640007047C046000100D0800100D0044A1078E5
:10165000431CDBB2172B00D9102313707047C04610
:101660005802002000B5054B83B0010000931822FA
:101670001F230348FFF786FF03B000BD2866001054
:101680009408002001238340002904D0034A1360FA
:10169000034A13607047034A1360FBE780E200E0EF
:1016A00000E100E080E100E001228240034B1B6882
:1016B00013405A1E9341D8B27047C04600E100E083
:1016C000024B10309B688000C058704700ED00E06E
:1016D00070B50D00EFF3108672B60F4A1368002B39
:1016E000FCD0BFF35F8F0D4B10309B6884001B59FB
:1016F0000B4A934203D09D4201D001F0F3F9074B0E
:101700009B681D51BFF35F8FBFF35F8F0022024BB9
:101710001A6086F3108870BD240100D000ED00E04F
:10172000CD010010F0B557464E46DE464546E0B5C1
:1017300085B0060002911700EFF3108B72B6674A6E
:101740001368002BFCD0BFF35F8F0025644B5D57FF
:101750009A46002D00DAA5E06B00624C03935B19FA
:101760009B009846A146C1444B4652469B79103691
:1017700013705D4BB2009B68019299580B1B2F2B85
:1017800034D95A4B994200D0A5E0039B584A9C4655
:10179000584B6544AD006353434602336519E41862
:1017A000554B0121043B1B1B1B055B0D13436B8039
:1017B000524BEF71AB80FF23AB71029BAB604B468A
:1017C0000B431900484B019A9B689950BFF35F8FF8
:1017D000BFF35F8F0022414B1A608BF3108805B076
:1017E000F0BCBB46B246A946A046F0BD01200A00A7
:1017F0008243D379BB422FD845464E461300404919
:101800001B1B5B415943090D3A4B63533A4B02355D
:101810006519043B5B1B1B05354D5B0D2B4373802A
:101820000426B446E0444444131F1B1B4C46A171DC
:1018300002991B05A16049465B0D2B43A380314BE8
:10184000E77101431360BDE75800C01880002018FD
:10185000C679BE422CD902000623D356002BF3DAF8
:10186000101D8246BD200002804604267642B44602
:10187000E14450464E46361A3005400D82465646E3
:101880001B48957106439680039A944665441D4A09
:10189000AD00641922604246A371029BA280E771E9
:1018A000A3608FE701F01EF9002553465D5753E70B
:1018B000101D824690884005001584464046D44459
:1018C000664604302018301AE0260005400D360226
:1018D00030438046C9E701F005F956E7240100D0FE
:1018E000500D00205C02002000ED00E0CD01001052
:1018F00000E0FFFF00A1FFFF8C02002000BDFFFF02
:10190000AAAA000001488047F0B5DE4657464E4679
:101910004546E0B50C0083B0EFF3108A72B65A4A20
:101920001368002BFCD0BFF35F8F102291468144D7
:101930004A46564B96009B689D59554B98469D428A
:1019400005D0A54216D0534FEB1B2F2B14D94F4B6C
:101950009B689D51BFF35F8FBFF35F8F00224A4B9F
:101960001A608AF3108803B0F0BCBB46B246A946A1
:10197000A046F0BD1D00EAE7012383409B465A467E
:10198000454B1B681A4000925A46444B1A60BFF3FD
:101990005F8FFEF768FC0190002803D0814501D0DD
:1019A00001F0A0F801232A009A4393689C4208D1D1
:1019B0005FE04B005B189B00FB189968A14211D0B7
:1019C0001A00062151560029F3DA009B002B05D09E
:1019D0005A46334B1A60304B1A60B8E75A462F4BC1
:1019E0001A60B4E706215956002921DB4A00501835
:1019F00080003C188046A0689860E079D871062085
:101A000020569871002824DBA488F81A6405241550
:101A100044440019E0240005400D2402204398802E
:101A20005218204B9200BF181A781970BA71CCE77F
:101A30000199002910D1FF3191711B4991801949F9
:101A40000A789A71194ADB1B5B415A43120D0A70DE
:101A5000BBE7BD200002E2E7154A1649D21A083A50
:101A60005002400D01439980134952080A43DA801D
:101A7000ABE70621515613000029B7DA019A002A74
:101A8000EAD14546DBE7C046240100D000ED00E086
:101A9000CD0100105C02002000E100E080E100E0E8
:101AA00080E200E0500D002000BDFFFFAAAA000068
:101AB0009602002000F0FFFF00F8FFFFF8B50125B7
:101AC00004000543FEF7CFFBEFF3108C72B6214AFA
:101AD0001368002BFCD0BFF35F8F1F4E2100B76847
:101AE0001E4A1F4B891A49414B431B0D59B28300B3
:101AF000F858A8421CD00623D3568B421CD0122380
:101B0000D3568B4222D01E23D3568B4220D02A2379
:101B1000D35603208B4210D0124B1A781970A27141
:101B2000BFF35F8F00220B4B1A608CF31088F8BD57
:101B3000B2680D48D050EFE7002043001B189B000F
:101B4000D218FF239371094B9380E5E70120F4E756
:101B50000220F2E7240100D000ED00E05C0200204A
:101B6000AAAA0000500D0020CD01001000BDFFFF0B
:101B7000054B064A1360064A136053609360D360B6
:101B800013615361936170478080808000E400E0BE
:101B900004E400E0024B9C46614489000160704708
:101BA0004000003483680B4810B5844661446244A9
:101BB000090112019A18591854684B6801209C4277
:101BC00001D802D00020C0B210BD12680B689A4242
:101BD000F9D8F7E7FFFFFF0F0A4B1968EFF3108002
:101BE00072B60A68002AFCD0BFF35F8F1B68BFF390
:101BF0005F8F00221A6080F3108840BF0020002110
:101C00007047C0462C0D0020F8B557464E46454655
:101C1000DE46E0B599460CAB1C780DAB1B78060090
:101C200090469A460768002C11D1BC7B002C42D00C
:101C300065003B682D19033D59194B78BB73002B88
:101C400000D1FB7300238B704B700B7004E06500B8
:101C50003B682D19033D5919B2682A4B94464246F8
:101C6000E3181B0163441A604A465A600A9A9A6054
:101C70000B9ADA6000238B704B700B707B7B9B465A
:101C8000002B2BD022005946B8687B6898473A68E9
:101C9000002816D05B4658465B005B445519033B51
:101CA000A870D118D35C002B00D06B705B460C7011
:101CB0007B73A34513D0F0BCBB46B246A946A046F1
:101CC000F8BD5B465B005B44033BD3189C70511925
:101CD000525D002A00D05A705B460B707C734246FE
:101CE0004B46307D00F070FB051E06D05346002B9E
:101CF00003D12100306800F089FD0E9B002BDAD063
:101D00001D70D8E7FFFFFF0FF0B5DE464E46574681
:101D100045460023E0B58DB00A936B4B8200D35843
:101D20000B90994600239B464B46079300F0ECFA34
:101D3000079C06000F006268EFF3108572B6136807
:101D4000002BFCD022000794BFF35F8F2468637BD5
:101D50009946002B67D092685C4B90464B441B0120
:101D6000984443461A685B6810001900801BB9410B
:101D700000295FDD0B9800F027FB00230026984622
:101D800000279A46079C6368BFF35F8F5A461A6024
:101D900085F310885346002B08D10028C6D10DB01A
:101DA000F0BCBB46B246A946A046F0BD0A9B4146E0
:101DB00018024B461843D047089009916268EFF328
:101DC000108572B61368002BFCD00794BFF35F8FA9
:101DD0000899099A002A48DB114303D0079B1B6925
:101DE000002B5DD1079B1B68D97B002907D04A00D7
:101DF000521819688C4649466244033A51704A4663
:101E0000DA734B46079A013BD168CA5C0132CA5467
:101E10005B46079A13615368BFF35F8F5A461A6097
:101E200085F3108882E700230026984600279A460B
:101E30000020A7E7002901D100289BD10021200024
:101E400000F066FC43461E685F689B68079A9A46E6
:101E50004346DB689846D3684B44013B1B780A93A2
:101E60001B020343136100208CE72369002BB9D0C8
:101E700033003C005B1A94411A002300A74219D892
:101E80009F421BD05946049101210391494602917A
:101E900041460191514607980091FFF7B5FEB7E71B
:101EA00000F032FA089A099B06000F0092197B4154
:101EB0009942E5D901225242D317E3E79642E1D98C
:101EC00001225242D317DDE7100D0020FFFFFF0F64
:101ED000F8B557464E464546DE46E0B5404D81468C
:101EE0008A466A68EFF3108872B61368002BFCD03C
:101EF000BFF35F8F2E68B47B002C39D06700336846
:101F00003F19033FDB195A78B273002A00D1F273EC
:101F1000A968344A8C464946A218120162441160ED
:101F200051465160304991600021D16099705970DB
:101F30001970737B9B46002B35D022001900B068C6
:101F4000736898473268002820D05B4658465B008B
:101F50005B44D719033BB870D118D35C002B00D079
:101F60007B705B460C7073735C451DD0002626E0C9
:101F70006B68BFF35F8F1C6088F3108801204042BC
:101F8000F0BCBB46B246A946A046F8BD5B465B0026
:101F90005B44033BD3189C70D119D25D002A00D05A
:101FA0005A705B460B7074734A465346287D00F0A6
:101FB0000BFA061EDAD02100286800F027FCEB6837
:101FC0001B19013B19786B68BFF35F8F00221A6001
:101FD00088F310880020002ED2D108022043CFE7DA
:101FE000A4020020FFFFFF0FD91B001010B5124CF8
:101FF0006368002B04D00A211048FFF7CBFD10BD09
:1020000023000F4A1021206800F0A0FA032000F0FE
:102010006FF9032000F048FA03200A4900F08EF916
:10202000FFF714FB084B9C46032360442375074BC2
:1020300080006060DC60DEE7A40200202C0D002040
:10204000A51B0010091D001040000034100D0020D9
:10205000F0B504000D0006267642F717C64636197D
:102060006F4100B58F4213D810D000F04DF9320007
:102070003B00121A8B41002B14DC002B37D02900B7
:10208000200000F04BF980BCB846F0BD8642ECD988
:102090000026002700F038F932003B00121A8B416D
:1020A000002BEADD30003900FFF712FF0028E6DBE5
:1020B00000239846BC460F4A0F4F7B6A9C4504D8C4
:1020C000B96A8E42DBD99C45D9D11168EFF31080F3
:1020D00072B60B68002BFCD0BFF35F8F1368BFF3A1
:1020E0005F8F4146196080F3108820BFE5E7002A22
:1020F000C5D0D7E72C0D00200040054070B5040086
:102100000D0000F001F902000B00200029008018EA
:1021100059418B4205D802D0FFF79AFF70BD824229
:10212000FAD901204042C117F6E7C04670B5060053
:1021300000F0EAF8FA2204000D000023300000212C
:10214000920001F0C7FA001969418D4205D802D00A
:10215000FFF77EFF70BD8442FAD901204042C117CB
:10216000F6E7C046F8B5CE46474680B506000C00F7
:10217000FFF7AEFE00280CDC2D4B0020596A8C4284
:1021800003D89B6A0130B34245D3C0BCB946B046C0
:10219000F8BD20BF274D6A68EFF3108772B6136849
:1021A000002BFCD0BFF35F8F2B68C1B29C465B7BDA
:1021B0008B4235D0FF2303405A0091466246126895
:1021C000994490464A464244033A9278002A1DD0E8
:1021D000EA68000A90464344013B1B78C0B2834240
:1021E00021D06B68BFF35F8F00221A6087F31088DD
:1021F0000F4A0020536A9C42C7D8926A0130B2420B
:10220000C3D2E01A421E9041C0B2BEE72B69984289
:10221000E7D12A61E5E7601A431E9841C0B2B4E7EE
:10222000FF230340D4E7604600F0F0FAD9E7C04648
:1022300000400540A4020020F0B5D6464F46464671
:10224000C0B5EFF305833F22134018001038EFF3B9
:10225000108C72B6204D2A68002AFCD0BFF35F8F25
:102260000122110081401D4C884661631C49170002
:102270000E788A463100C1400F400A4209D1BFF3AF
:102280005F8F2F608CF31088E0BCBA46B146A84639
:10229000F0BD14498200646A51588C420FD3124B2E
:1022A000D25843469E4353461E70BFF35F8F0023B0
:1022B0002B608CF31088002AE6D09047E4E70B4AA5
:1022C0009B00904643441A681A60BFF35F8F002357
:1022D0002B608CF31088D7E7280100D00040054020
:1022E000510D0020300D00207C080020D03F05401B
:1022F00010B50100024A0348FFF722F910BDC0469D
:10230000446600104F0D0020034B596A0A00986A7A
:10231000596A8A42FAD1704700400540064A536A1A
:102320009942FCD807D1044B02E05A6A914202D18B
:102330009A6A8242F9D370470040054070B50400A4
:102340000D00EFF3108672B61A4A1368002BFCD00A
:10235000BFF35F8F002D1BD02000FFF7B1F91649A6
:1023600081420AD02000FFF7B3F901212000FFF7D6
:1023700089F90123A340114A1360114BA400E550D1
:10238000BFF35F8F00220B4B1A6086F3108870BD7D
:102390000B4BA200D5500122A2400A4920000B7825
:1023A00093430B700449FFF7AFFA00212000FFF7B9
:1023B00069F9E5E7280100D03922001038600540AE
:1023C0007C080020510D0020F0B54F46D646464609
:1023D000C0B507002F4C616A0D00A66A616AA94268
:1023E000FAD18B4208D805D00120E0BCBA46B146EC
:1023F000A846F0BDB242F7D9EFF3108A72B626486C
:1024000001680029FCD0BFF35F8F0125BD4023493F
:10241000204C8846097889462943C9B28C464146F2
:1024200060460870391D1E48890065630A51B9006D
:102430000B50216A0020294219D0616A0800A66A5F
:10244000616A8142FAD18B4219D801D1B24216D8C1
:10245000CC451DD00F4B1F201D625D63012307403B
:10246000BB40104A1E38136043464A461A70BFF3F9
:102470005F8F0022084B1A608AF31088B5E70020AE
:10248000BFF35F8F0022044B1A608AF31088ACE719
:102490000120ECE700400540280100D0510D00204C
:1024A000300D002080E200E0EFF3108C72B60A4994
:1024B0000B68002BFCD0BFF35F8F01238340074ADA
:1024C0000748136202789A430270BFF35F8F0023BC
:1024D0000B608CF310887047280100D00040054045
:1024E000510D002070B5050014001600002915D00C
:1024F0000C00002A12D080686B6898472968002871
:102500000ED073009B196200033B1219CB18033ADB
:102510009C7088188A5C002A15D10670200070BD56
:1025200063001B197200033B9219CB18033A9E708B
:1025300088188A5C002A02D104703400EEE75A70D1
:1025400004703400EAE75A700670E7E730B583603C
:102550000023CCB243730133047342608373C473AA
:102560000D000068012C06D9421C0133DBB2137048
:1025700003329C42F9D1FF2129404B005918002316
:1025800040180338437030BDF8B5CE4647460600C4
:102590000C0080B5002907D04D0003686D18033D7D
:1025A0005A195778002F04D12000C0BCB946B04654
:1025B000F8BD7900C91903398846434459788946DA
:1025C00000215970517073683A0021008068984763
:1025D0003368002814D042469A18947059195B5DEC
:1025E000002B00D053700F70270049463000FFF7D2
:1025F000CBFF390002003000FFF774FF0400D3E77F
:10260000424641465D19AF709A185B5C002B00D0C2
:102610006B701470E9E7C046F0B557464546DE4694
:102620004E46E0B50D006B0001685B19DF1E04002B
:10263000C85D83B00192CA1900284CD043001B1812
:10264000033BCB185E78B446002E16D1019E002EB7
:102650003ED0E67B002E04D073009B19CB18033BC1
:102660005D70E57300282FD10023537003B0F0BCD8
:10267000BB46B246A946A046F0BD72006244033A8A
:1026800089184A78904600224A7091465A70010093
:1026900032002000FFF726FF43468246002B07D07A
:1026A0005B0021684344033BCB185A78002A16D1BB
:1026B000424651462000FFF715FF2168019BCA19C9
:1026C000002BC6D10028CFD043001B18033BCB18EA
:1026D00000219970C8E7019B002BBAD1C4E75000D4
:1026E000801803380918487883464846487058705F
:1026F00041462000FFF7F6FE594680462000FFF7CE
:1027000043FF414602002000FFF7ECFE8046CFE782
:10271000F0B557464546DE464E46E0B583B00191DA
:10272000457B04006B0000685B19DF1EC15DC219A8
:1027300000294ED04B005B18033BC3185E78B446AB
:10274000002E18D1019E002E40D0E67B002E04D032
:1027500073009B19C318033B5D70E573002931D1E9
:10276000002328005370617303B0F0BCBB46B2462F
:10277000A946A046F0BD72006244033A8018427830
:1027800090460022427091465A7020003200FFF7B6
:10279000A9FE43468246002B07D05B0021684344D4
:1027A000033BCB185A78002A17D1424651462000E5
:1027B000FFF798FE019B01002068C219002BC4D1CD
:1027C0000029CDD04B005B18033BC3180020987044
:1027D000C6E7019B002BB8D1C2E750008018033830
:1027E000091848788346484648705870414620008A
:1027F000FFF778FE594680462000FFF7C5FE4146A8
:1028000002002000FFF76EFE8046CEE770B50400A0
:1028100000292CD0437B8B422ED0056848004018FD
:10282000033828188278002A21D053009B18033BD4
:10283000EA5CEE188A4202D11BE0002A08D053005D
:102840009B18033BEB185A788A42F6D142785A70AB
:1028500000230122837043702000FFF7DDFE617BBF
:1028600002002000FFF73EFE6073012000E0002020
:1028700070BD43783370EBE701221900FFF7CCFEFF
:1028800060730120F4E7C04610B50400FEF7DEFED9
:1028900001002000FFF77EF9FF232371BFF35F8F54
:1028A00010BDC04610B50400FEF7D0FE01002000A8
:1028B000FFF770F9FF23A380BFF35F8F10BDC04601
:1028C00010B504000120FEF7CDFE044B9C46604489
:1028D00080002060BFF35F8F10BDC0464000003411
:1028E000F8B5040006200D0000F060FA002844D07E
:1028F0002A4B2B49E21853425A418023DB039C4662
:102900009205284B62441A60274B1A6010008B68AE
:102910009843FBD1214B8021E3185A425341234A6B
:102920005B0049009952062000F040FA2900C000DF
:1029300000F010FBC30921D140270121260080258A
:102940006162A36200232C36AD0135432B60062063
:1029500000F02CFA3900800000F0FCFA6023E26AF3
:1029600053406E221A4080235B0133431A60104BA0
:10297000236310232B600D3BA364F8BD0D4A9342E3
:1029800003D900230C4F0D49D8E77F2210400130B6
:1029900040089F0119003F180300CFE70080FCBFEB
:1029A00000C0004000E0004000F00040400D00206A
:1029B00001030000FEFF0000C0FF3F00FFFF00001A
:1029C0002C4B2D4A70B51A602C4A2D4B2D491A609C
:1029D00014008B689C43FBD12B4D2C4EB54208D282
:1029E000013E761BB60808CD984723000134B34258
:1029F000F9D100F07DF8264A214B1A60214A9368EC
:102A0000DB43DB01DD09002BF9D14022214B224CB5
:102A1000224E9A675A671A67DA66B44208D2236868
:102A20002000002B20D00834FFF73CFFB442F6D33F
:102A30001B4E1C4CC022A168300000F0BBFEA660FB
:102A4000FEF7F6FDFFF794F8FFF7D0FA164C174E95
:102A5000B44208D2013E361BB60808CC98472B007A
:102A600001359E42F9D170BD0834FFF70DFFB44225
:102A7000D5D3DDE700E00040BFCDFBFEFE7F3C008C
:102A800000F0004000C00040480300205803002030
:102A9000FFFFFF0100F00140380300204803002041
:102AA0000000002000ED00E0580300205C0300203F
:102AB00000BEFDE70FB400B5084883B000F0B0FFDA
:102AC000049B002B07D005A91800019100F0F0F934
:102AD000034800F0A5FF00BEFDE7C0466866001091
:102AE0007866001010B50148FFF7E4FF7C6600101F
:102AF00030B50C2083B000F0B7F9FEF791FD002847
:102B00000ED0944B944A1A605A609A60DA601A6147
:102B10005A619A61DA611A62904A5A6203B030BD12
:102B20008F4CA06700F0A8F901228E4B1A60636CED
:102B3000012BFCD103228C4B1A60894A936B012B29
:102B4000FCD101330121894A89480093043300F004
:102B500033F90523874A00930121874800F02CF9B7
:102B6000864B5A68FF2A02D8802252005A6080227F
:102B7000784C7D4B21691201804D1A60002905D0E7
:102B8000606900F0E7F901300138FDD1E0217B4BAD
:102B900002201A681140802252012A4311601968EC
:102BA000484003210140116004219A681142FCD081
:102BB0008022802192012A43090111608022520063
:102BC0005A606F4B23616F4B5968FF2900D85A60D8
:102BD0000321644A6B4B116002399A681142FCD0A0
:102BE000E0201A681040802252011A4310601868D1
:102BF0004840032101400220116062498A68104266
:102C0000FCD0802292011343802212011A6080229C
:102C10005D4B52004A6063615C4B5968FF2900D8E4
:102C20005A6080225A4BE1691201584D1A600029FE
:102C300005D0606900F08EF901300138FDD1E02245
:102C400052490B681A4080235B012B431A60802392
:102C500080229B012B4312011A6080223E4B5200BE
:102C60004A60E3614B4B5968FF2900D85A608022C3
:102C7000494B216A1201474D1A60002905D060694D
:102C800000F068F901300138FDD1E02241490B68BC
:102C90001A4080235B012B431A60802380229B0112
:102CA0002B4312011A60802380225B004B602A4B69
:102CB000D2022362394B5968914200D25A60802275
:102CC000374B616A1201354D1A60002905D06069E1
:102CD00000F040F901300138FDD1E0222F490B68A6
:102CE0001A4080235B012B431A60802380229B01C2
:102CF0002B4312011A608023DB024B60174B636287
:102D0000284B5A68FF2A02D8802252005A6080223B
:102D1000254BA1691201234D1A60002905D0606975
:102D200000F018F901300138FDD1E0221D490B688F
:102D30001A4080235B012B431A60802380229B0171
:102D40002B4312011A6080235B004B600E4BA36182
:102D5000E4E6C04698080020006CDC021BB70000C7
:102D6000008000403CB0004030B00040002F685967
:102D700000800240008C864700C002403080004046
:102D8000001BB7003C80004040597307548000404E
:102D900054B000406080004060B000406C80004053
:102DA0006CB000404880004048B00040014B8000BB
:102DB000C058704798080020F0B5C646040000B51A
:102DC0000C2090461F000E0000F0C4F84101091AC3
:102DD0008D01691AC90009188901404600F0BAF846
:102DE000069B3F041A0323681743002B22DB1A4B70
:102DF0001A4DE21853425A4180235B019C4612034C
:102E0000174B62441A60174B1A601100AB68994364
:102E1000FBD1C022231D92011A4321232660A0600A
:102E200013602368002BFCDA0823E760136080BC82
:102E3000B846F0BD3F2322681340B342D7D1A36800
:102E40001B051B0D8342D2D1EE22E368D202134050
:102E5000BB42CCD1EBE7C0460040FDBF00C0004004
:102E600000E0004000F000408023024A9B00034342
:102E7000D362704700800540AA23064A1B011360F5
:102E80002F230549D360054B19605368002BFCDAEA
:102E90007047C0460040024000B0FA0000600240A7
:102EA00010B5002800D110BD00F06AFDFBE7C04658
:102EB00010B5094A0300146884B0002C08D0012220
:102EC00000910648524203A9A047012004B010BD5A
:102ED00000F0A6FD0020F9E7080D0020A12E00104B
:102EE00001480421014B1847D0020020112F001087
:102EF000142310B50100188804331B88984710BDAF
:102F0000162310B50100188802331B88984710BD9E
:102F1000F8B54746CE4680B50F1E19D01423994602
:102F2000043304000025012698464B461888434682
:102F300021681B88984701C4431E984101354042CF
:102F40000640AF42F1D13000C0BCB946B046F8BD32
:102F50000126F8E7114A936F9B0813D21066516659
:102F6000002905D0FFE7FFE7FFE7516F106F7047BB
:102F700004B5002801D00020C04302F069FF002101
:102F800004BDC046F0B5146E556E576F166FFFF74F
:102F9000E5FF1466556657671667F0BD000000D060
:102FA00094464E4A926F9208624601D230E0C04683
:102FB000F0B54A4EB56F6D08FCD3346E756E776F01
:102FC000366F00F025F89446444A146655665767F4
:102FD00016676246F0BDC0469446404A926F92081A
:102FE000624601D258E0C046F0B53C4EB56F6D0860
:102FF000FCD3346E756E776F366F00F04DF89446E3
:10300000364A14665566576716676246F0BDC04675
:10301000002B24DB11D000293EDA00B5C943404221
:1030200000D1013100F038F8C943404200D10131EC
:10303000DB43524200D1013300BD002AEBD100280E
:1030400001D1002905D00020C90FC90701D1C04313
:10305000410800B502F0F4FE0022002300BD00B5D7
:1030600000290ADBDB43524200D1013300F014F89F
:10307000C943404200D1013100BDC943404200D1A3
:103080000131DB43524200D1013300F005F8DB434C
:10309000524200D1013300BD002923D1002B18D1A9
:1030A000002A0CD0BC460D4F38667A6600210023FA
:1030B000FFE7FFE7FFE77A6F386F67467047002842
:1030C00001D00748010000B502F0BAFE002200233B
:1030D00000BD02000B00002000217047000000D05E
:1030E000FFFFFFFF002B00D0BFE0130C28D1002A08
:1030F000E7D080B4114F39667A66FFE7FFE730B456
:10310000040C7B6F396F1B0423433B667A66FFE731
:10311000FFE7FFE7C04684B27B6F3D6F1B0423438C
:103120003B667A66FFE7FFE7C04600232C042D0CC0
:103130007A6F386F00196941B0BC7047000000D049
:10314000F0B594460025140E01D112020835140F73
:1031500001D112010435940F01D192000235D40F30
:1031600001D152000135D40B0134254F7C66254C2A
:103170003C660E0C93B2FFE7FFE7FFE73C6F664348
:10318000360C7703BE467343DF0B5B04C01AB941AC
:10319000130C7343DB18C91ACE086643360CB644C9
:1031A00093B273431F0F1B01C01AB941130C734331
:1031B0001F0B1B05C01AB941860D8F023E436643A3
:1031C000360C092D24DB520A7243801A7703460A13
:1031D0006643360C16235B1BDE40DF40BF19644696
:1031E0006643821B7046043506330100D940A8406F
:1031F000C01900D30131A24206D20023F0BD000065
:10320000000000D0FFFFFFFF121B0130F3D3F1E7F6
:1032100009277F1BFE406446A2B27243801A00D287
:103220000139220C7243130C1204821A99410B00CB
:103230007046043513370100F940A840801900D3C7
:103240000131002B02D1A2420AD2F0BD013000D3DD
:103250000131121BFAD2013BF8D1A24200D2F0BDDB
:10326000013000D30131121BF7E7F0B51C0C00D080
:1032700080E00CB400251C0A04D11B02160E334357
:10328000120208351C0B04D11B01160F3343120127
:1032900004359C0B04D19B00960F334392000235FA
:1032A000DC0B02D192185B4101351C009718644178
:1032B0000134464F7C66464C3C660E0CFFE7FFE748
:1032C000FFE7C0463C6F6643360C7703BE4697B2B5
:1032D0007743C01B00D20139C01B00D201399FB215
:1032E0007743C91BC91B170C77437E04FF0B801B58
:1032F000B941CE086643360C0C2D33DBB644120BB5
:103300001F053A431B0B97B27743C01B00D201390C
:103310009FB27743C91B170C77433E043F0C801BB9
:10332000B941860D8F023E43664329277F1BFE402D
:103330000C3D7746AF40BF1930BCA2B2ABB272436E
:103340007343801A9941220C7243130C1204801AA1
:10335000994102000B000137001BA941F9D2781EE8
:103360000021F0BD0C277F1BFE4077467F0BAF404E
:10337000FF19E0E700245D1C07D0144F7D66396615
:10338000FFE7FFE7FFE7FFE73C6F95B29EB26543BB
:103390006643401BB141150C1E0C65436643360461
:1033A0002F0C3E432D04401BB141994204D2020030
:1033B0000B0020000021F0BD01D19042F7D3801A0C
:1033C000994101349942F2D3F6E70000000000D0A1
:1033D000FFFFFFFF0021002805D17047C1174840BB
:1033E000401AFAD0C90713B5064B1B6898470CBCA6
:1033F000441CA2401005120B0349091B090519437F
:10340000114310BD280D00201F04000010B54C0012
:10341000620D8023D218DB00D21A5B057E2A10DDF4
:103420009E3A13DACC170903490819435242D14096
:10343000640001341532202A05DAD0400843604385
:1034400010BD002010BD0846604310BDC80FC01855
:10345000013810BD18B4044B9B69FC46019308BDAC
:1034600018DF49350010000060040020132370B5F8
:103470001D78012D15D010DD1C48FFF741FD1C4CB7
:1034800001008022200000F095F9022D06D0194895
:10349000FFF72EFD184B186070BD154C174BA36439
:1034A000F5E7164B124C23606360A360E360236171
:1034B0006361A361E36123626362A362E3622363E6
:1034C0006363A363E36323646364A364E3642365C6
:1034D0006365A365E36523666366A366E3662367A6
:1034E0006367A367E367A364D1E7C0465344000062
:1034F000600400204C330000280D0020013500102E
:1035000007B5604601880A0A0230DF2AFAD1C9B23B
:10351000820804D3028840880004104300E0006859
:10352000014A5050039007BD6004002007DA0021D3
:1035300007E0C90FC907520D03D0C91201E04C4979
:10354000090500207047C0464A00F2D2520D013AE8
:10355000484B9A42EAD2F0B51405091B520801D330
:10356000001849419B08D2181205944640A44A0C01
:10357000A25C0B09534353431B1353435B131202C7
:10358000D21A13005B435B0B4C086343DB135343BA
:10359000DB1501335B10D21A130CD21A13005B43F4
:1035A0008902840D21438DB29EB275430F0C7E4378
:1035B0001B0C5F438CB25C43361902D301242404F4
:1035C0003F193404330C64197B419D01A40E2C4334
:1035D0002034A5B25543241454432D0C6419A4116E
:1035E000D203121B95B28EB27543170C7E430C0C9E
:1035F000674393B26343F61802D301231B04FF18F9
:103600003304340C5B197C41DB186441DB18002364
:1036100063419EB276439DB21F0C7D437F436C0491
:10362000ED0BA4197D4106028F08361BAF417D07C3
:10363000F6086E41B4B295B26C4337147D43120C58
:103640005743B6B25643EA17AD1900267241120429
:10365000BF182E042A0C36197A410832521117D29B
:103660009D0A9C05D117101969416144F0BD000005
:10367000FF070000FE070000F8EBDFD6CDC5BEB89F
:10368000B2ADA8A4A09C9995928F8D8A88858381DC
:1036900052415D0ADC05D11714194D412B006343DB
:1036A000A6B27643A2B2270C7A437F435104D20BD1
:1036B00089197A41D218D21880054942904102D422
:1036C000002301345D4160086908ED072843614427
:1036D000F0BDC04651434343C9188C46110C83B218
:1036E0004B4310B4040C614392B280B25043624326
:1036F0001C041B0C001910BC59411304120CC018F7
:103700005141614470470000132310B512481C78E2
:10371000FFF7F6FB0100012C0AD003DD80220F48E1
:1037200000F048F80E48FFF7E3FB0E4B186010BDA1
:103730000A4C5422200000F03DF80B4B6365A36552
:10374000E36523666366A366E36623676367A3672F
:10375000E3672362E361E5E753460000600500206C
:103760004C330000280D00206D37001007B560466F
:1037700001880A0A0230DF2AFAD1C9B2820804D3CA
:10378000028840880004104300E00068014A50505D
:10379000039007BD6005002001480421014B184734
:1037A000E0020020112F0010014B1B681847000099
:1037B000E0020020014B5B6818470000E002002097
:1037C000030010B5080011001B68984710BDC046E3
:1037D000F0B546464F46D646C0B5437C80460E00FF
:1037E0001700002B46D0002A3FDD4B1E9946244B84
:1037F0000125002400209A460DE04B461B5D0D3B41
:103800005A425341325DDBB20A2A0BD02B000134FD
:1038100001359F421ADD002CEFD14346325D1B7CFF
:103820000A2AF3D1002BF1D1A04204DA4346211A2F
:103830001B6830189847434650461B68022198473A
:10384000013428002B0001359F42E4DC874204DD6F
:103850004346391A1B6830189847F619013E3378E9
:103860000D3B5A42534142461374E0BCBA46B1463E
:10387000A846F0BD0368110030009847F5E7C04640
:10388000F0660010F0B557464E464546DE461C0031
:10389000D023E0B51B061F68344B83B006000D0033
:1038A000180001A991469A4602F0DAFA80460028EB
:1038B00008D1019B7FB29F4204D0504602F0E0FA4B
:1038C000012398466B1C03D1300002F081FA0500F9
:1038D000002C27D1264F274B1C68002C18D04B46B4
:1038E000002B21D1244B994602E0E468002C0FD034
:1038F0002368002BF9D04B461B68002B01D0A34254
:10390000F3D120002A003100B847E468002CEFD141
:103910004346002B25D103B0F0BCBB46B246A946B6
:10392000A046F0BD154FD6E7134B99460A239B4698
:1039300002E0E468002CEBD02368002BF9D04B4662
:103940001B68002B01D0A342F3D12A0031002000D4
:10395000B8475A466B4620001A7101A90122B847A0
:10396000E7E7504602F064FAD5E7C046400300207E
:10397000D13700100009002004090020C1370010D1
:10398000F0B5CE46474680B583B06B46DE1CD023EB
:1039900030701B061C681F4B804601A91800994611
:1039A00002F05EFA071E20D01B4B1C68002C28D0AA
:1039B0001A4D02E0E468002C0FD02368002BF9D0E8
:1039C0002B68002B01D0A342F4D12000012231004A
:1039D000FFF7FEFEE468002CEFD1002F11D1404626
:1039E00003B0C0BCB946B046F0BD019B64B29C4276
:1039F0000BD0484602F044FA074B01271C68002C04
:103A0000D6D1484602F014FAE9E7034B1C68002CB3
:103A1000CED1E4E740030020000900200409002083
:103A200070B5040002F0D4F9002301000500012262
:103A30002000FFF727FF084B1C68002C06D06368A6
:103A4000002B05D09847E468002CF8D1280070BD01
:103A5000E468002CF3D1F9E7000900200A4A136852
:103A6000002B05D10CE01A00DB680C32002B07D0CC
:103A70009842F8D1002902D1C3681360C160704731
:103A80000029FCD01060FAE700090020F0B50D1EF7
:103A900015DD0E4B0D271A680D4B4519D3185942E9
:103AA0004B410C495B005E5E20210478A64207D0A2
:103AB00093691942FCD101301460A842F5D1F0BDE0
:103AC00093691942FCD11760F2E7C046480D002007
:103AD0000080FCBF400D002030B504000D1E12DD3B
:103AE00000201021094B013C1A689369194208D142
:103AF000013093691942FCD1136823548542F4D1F3
:103B000030BD0028FCD103204042F9E7480D0020D9
:103B100070B51C000A4B15001860FEF7E1FE002D81
:103B200003DB02212800FDF765FC002C03DB0221EA
:103B30002000FDF75FFC01210248FFF78FFF70BDF9
:103B4000480D0020F002002003BDC04610B504005F
:103B5000FEF70EF8A04710BDF0B5040087B00F20A7
:103B60000E001700FDF7A0FD002105000F20FDF756
:103B700089FD002300220092019301230293D023A8
:103B800004960594002600240121022003971B06B9
:103B9000002C14D01A6D1042FCD05C6540BF1A6D29
:103BA000114203D120BF1A6D1142FBD09A6DA2427F
:103BB0000AD000266C46B200A458E9E79A6D1A6D47
:103BC0001142FBD140BFE5E70136052EF2D92900AD
:103BD0000F20FDF757FD07B0F0BDC0460B4B0C4A58
:103BE00010B5934201D201235B421900094A985053
:103BF00004329B50084A094B0948CA50094B9A683D
:103C0000044B9C466144FFF7A7FF10BD0008042049
:103C100000000420F40700004D3B0010FC070000EA
:103C2000493B001000ED00E0F8B5DE4657464E4631
:103C300045468346E0B505200C00FFF7B7F80600BF
:103C4000600821008019FFF785F9430098468044F9
:103C5000070005214046FFF77DF93B1A9A46204BA5
:103C60008146700080199C4234D81E49FFF772F9D2
:103C7000451C5B461C680023E366226804335340FE
:103C800006221A4080235B0123431A605346E361F6
:103C90004B462362434601204F2B03D95021404617
:103CA000FFF758F9A0232200E0508023E06F7C3218
:103CB00045402D045B0113432D0C1D600123390089
:103CC0003000E366FFF746F9F0BCBB46B246A946B2
:103CD000A046F8BD0449FFF73DF9451CC9E7C046B9
:103CE0003F420F008096980040787D01104A70B5E1
:103CF000821A53425A41072352429A430D4B1032C3
:103D00001A600D4B0D4C1A601500A3689D432B1EC5
:103D1000FAD166240268FF340571D5661460633CED
:103D20008833FF3CD5639563D450FFF77DFF70BDAA
:103D30000403002000E0004000F0004000C000400C
:103D4000F0B557464E464546DE4690460022E0B561
:103D500083B01E000CAB1B7884469A460368DA6673
:103D600001325960DA66002E4FDD51464A40520258
:103D700001928022914632008025771E002046461F
:103D800010219046AD000024002804D16246147929
:103D9000621E9441A40200229346B8421AD0325CBB
:103DA00022435C4622431A615A6B1142FCD04A46B8
:103DB0009C58002C11D1B84222D001308045E2D16C
:103DC000634652461A7103B0F0BCBB46B246A946E0
:103DD000A046F0BD019A9346E1E75A6D0122934651
:103DE0005A6B2A42FCD01A6E5A46002AE5D0002CA3
:103DF00003D0E30701D42307E2D402204042DFE7E7
:103E00005246002AD9D1D346EAE70020D8E7C04677
:103E1000F0B54546DE4657464E4693460022E0B58D
:103E20001D0009AB1B78040098460368DA6601326E
:103E30005960DA66002D3EDD41464A405202944602
:103E400080220020520091466F1E803A596F10293F
:103E5000FCD0002826D000268021B2464900B84276
:103E600012D0196102E0996F002913D19958596D48
:103E70000029F8D00220404243462371F0BCBB46E3
:103E8000B246A946A046F0BD6646514631434E466D
:103E90003143E6E759461B690B5401308542EBD0AC
:103EA0002368D3E721790029D5D08026A021F60008
:103EB000B246C900D3E70020DEE7C046F0B598233C
:103EC00057464546DE464E466C4AE0B5D7588025F3
:103ED0003C006D02883B9A4683B02C402F420FD0A5
:103EE00001222321664B00205A54DA70654901F003
:103EF00077FA8022644B92021A65644B2C009A4632
:103F0000FB0617D480235B011F4245D18023DB01D0
:103F10001F4200D088E080231B021F4200D091E0A6
:103F2000BC4200D0A5E003B0F0BCBB46B246A946F7
:103F3000A046F0BD514B9B6D9846002B27D0524BAD
:103F400000249B460123994643460126B8461F009C
:103F500004E001347600E4B2202C17D03742F8D0C8
:103F60005B469E654B466508A3436D00ED18444BC8
:103F70006D019C466544280000F092FB00286CD13E
:103F80000134B743E4B27600002FE5D147468023E1
:103F90005B0154461F42B9D01C430023374A00211D
:103FA0001360384A3A489360D3603A4A9360D360CA
:103FB000394A9360D360394A9360D360384A93603A
:103FC000D360384A9360D360374A9360D360374AEE
:103FD0009360D360364A9360D360364A9360D3606F
:103FE000354A9360D360354A9360D360344A936016
:103FF000D360344A9360D360334A9360D360F02235
:104000009200FFF7D1FB314B314A00211A600020AA
:10401000012201F0BBF980221B4B12031A65802399
:10402000DB011F4200D176E70122042100201C435E
:1040300001F01CF91022144B1A6580231B021F4249
:1040400000D16DE70122052100201C4301F00EF98B
:1040500080220D4B12011A6562E74B46AA8AA978A5
:1040600000200093002301F0E3F9280000F054FA47
:1040700086E7210017487940FEF71CFD000011502B
:1040800008090020000010500030115010000100FD
:10409000480900200800105010001050180010505F
:1040A00020001050280010503000105038001050E0
:1040B0004000105048001050500010505800105050
:1040C0006000105068001050700010500C0D00205F
:1040D00080011050F466001010B501210520FDF795
:1040E000D1FA10BD10B500220021024800F03CFAC0
:1040F00010BDC046280900208022024B5201DA641C
:104100007047C046002011508022024B5202DA64F0
:104110007047C04600201150F0B5C64600B50600F5
:1041200000F0D4F90C23354D0520AB673449FDF779
:10413000CFFA40239846334C402200212000FFF75D
:1041400033FB43460127A383212100232E4A6770B6
:10415000A260136063545F3161844146A1870239D4
:1041600063542A4A2A496360E260A1620B60E262FA
:10417000284A63629360D360274A20009360D3602B
:10418000264A00219360D360254A40309360D36073
:10419000244A9360D360244A9360D360234A936097
:1041A000D360234A9360D360224A9360D360224A4B
:1041B0009360D360214A9360D360214A9360D360B7
:1041C000204A9360D360204A9360D3601F4A936073
:1041D000D360F0229200FFF7E7FA1D4B1D4A300032
:1041E0001A6080239B052F64EB6490231A4AEA50DF
:1041F000FFF78AFF80BCB846F0BDC04600001150F2
:10420000BD3E00100809002084001050000110502D
:104210008000105000001050080010501000105086
:10422000180010502000105028001050300010507E
:1042300038001050400010504800105050001050EE
:10424000580010506000105068001050700010505E
:104250000C0D00208001105010D001000B785B067F
:1042600002D14B78052B00D070478A78014B1A6039
:10427000FAE7C04600001150F0B5CE464746072386
:1042800080B548798E780A790340C8787F21800705
:1042900031401B02F40913434F00820F94469146AC
:1042A0002A4D3A195201AA18967001266640567096
:1042B000604600269383D6709077CA00012C29D0DF
:1042C00023488446880162448446AC446046826048
:1042D0001660002929D01F4AC90090464144416018
:1042E0003F223F3393434A46022A00D15B001A49DA
:1042F0003F190A687F01D3180B60184BED19534022
:10430000EA604A469006184380231B0618436B68F0
:10431000186010E012488446880162448446AC4428
:1043200060468262166000290AD1002364012D19BB
:104330006B600C4BEB600120C0BCB946B046F0BDD1
:10434000064AC900904641444162C9E70809002075
:1043500084001050040010500C0D0020000010507C
:10436000800010500001105000231C4A10B59360CB
:10437000D3601B4A00219360D3601A4A1A489360A5
:10438000D3601A4A9360D360194A9360D360194A84
:104390009360D360184A9360D360184A9360D360E7
:1043A000174A9360D360174A9360D360164A9360AC
:1043B000D360164A9360D360154A9360D360154A60
:1043C0009360D360144A9360D360F0229200FFF7A9
:1043D000EBF9124B124A1A6010BDC0460000105093
:1043E000080010501000105048090020180010500C
:1043F000200010502800105030001050380010508D
:1044000040001050480010505000105058001050FC
:104410006000105068001050700010500C0D00200B
:104420008001105010B57F200C0020404000E409AE
:10443000110000191A00034B4001C01800F094F855
:10444000012010BD080900207F22130010B50B4089
:104450000A420BD0C9098022580040180649400181
:1044600040181201002100F05DF810BD022203483F
:10447000C909521A8266EEE708090020002011508F
:104480007F22100010B508400A4200D110BD002361
:10449000C909400040180449400108180022034996
:1044A000C37000F03FF8F1E708090020FFF7FFFFB5
:1044B0007F21C309034A9B00014010B59A58024866
:1044C000FEF7F8FA0C0300200867001080220D4B5D
:1044D000520410B51A600C4B0C491A6010008B681E
:1044E0009843FBD10A4C9C2200212000FFF75CF985
:1044F0008022002152010748FFF756F9092363671C
:1045000010BDC04600E0004000F0004000C0004088
:104510000000115000001050002303744382838276
:104520008361704710B58368002901D01C68214061
:10453000002A11D08024E400114322420CD01A68D2
:1045400022420BD1074A0A401A60FFE7FFE7FFE764
:10455000FFE7FFE7FFE78368196010BD8078FFF78A
:10456000A7FFC046FFFBFFFFF0B5C646002300B51E
:10457000838201330374436804001E68838B816166
:104580001F1C934200D9171C8025BFB2D21B93B2C7
:10459000E278ED0063823D43002A02D09025AD0110
:1045A0003D4301204240E2706278002A51D0002B46
:1045B0001DD1A023DB011D43354B1B6C354B334014
:1045C0008026B6051E436368A2681E6013685B05FB
:1045D0005AD4314B2B401360FFE7FFE7FFE7FFE7BB
:1045E000FFE7FFE7A3681D6080BCB846F0BD8022EE
:1045F00052011543264A126C920703D4A278D209BD
:10460000012ADBD1A28B111C9A4200D9191C8027E8
:104610008AB2FF009B1A90461743E2789BB26382EE
:10462000002A03D090274146BF010F4301214A4091
:10463000E2706278002A19D0002B02D18023DB01BE
:104640001F43164B3F043340A026F6053D431E434F
:10465000B9E73A00E068FFF7ADF8A3699C4680230C
:1046600067441B021D43A761638AA0E7E0684246D6
:10467000A1694030FFF79EF8A3694344A3618023FA
:104680001B021F43638AD7E7A078FFF711FFC046DC
:1046900000001150FFFFFFAFFFFBFFFFFFFFFFDF39
:1046A000F0B5C64600B5067C0400002E00D1D3E06C
:1046B00083681A681D684378AD05AD0D002B51D194
:1046C000838AEB189BB28382A18B8D4207D2002391
:1046D000638263681B68300080BCB846F0BD6268C6
:1046E0001268520002D58D4200D175E0638A002B1A
:1046F000F1D062681F1C16688B4200D90F1C802500
:10470000BFB2DB1BE2789BB2ED0063823D43002A1F
:1047100002D09025AD013D4301214A40E27062780C
:10472000002A68D0002B2AD1A023DB011D434F4B68
:104730001B6C4F4B33408026B6051E436368A2684E
:104740001E6013685B0500D58DE04A4B2B4013605B
:10475000FFE7FFE7FFE7FFE7FFE7FFE7A3680026C4
:104760001D60B8E72A00C1688069FFF723F8A38AB3
:10477000A269EB189BB25219A382A261A4E780221E
:1047800052011543394A126C920703D4A278D20918
:10479000012ACED1A28B111C9A423FD880278AB21F
:1047A000FF009B1A90461743E2789BB26382002A6F
:1047B0002FD101214A40E2706278002A3ED0002BBE
:1047C00002D18023DB011F432B4B3F043340A02643
:1047D000F6053D431E43B1E7A26815686278AD0156
:1047E000AD0D002A1CD1EB18A3828D4200D37DE7CA
:1047F000002363826FE73A00A169E068FEF7DAFF01
:10480000A3699C46802367441B021D43A761638AFA
:1048100088E790274146BF010F43CAE7191CBDE74F
:10482000E1682A004031A069FEF7C4FFA38AA18B8A
:10483000EB18A382A3695B19A361D6E7E06842463F
:10484000A1694030FEF7B6FFA3694344A36180230A
:104850001B021F43638AB2E77F238178074A084817
:104860001940FEF727F9A078FFF722FE000011504B
:10487000FFFFFFAFFFFBFFFFFFFFFFDF0C03002089
:1048800028670010024B5878431E9841C0B2704709
:1048900060070020024B18784007C00F7047C046E1
:1048A00060070020094A10B513785B07DC0F002B66
:1048B00005DA182312781340182B02D000242000A8
:1048C00010BD0020FFF718FCF9E7C0466007002084
:1048D000014B18787047C0464E0D0020F8B547468A
:1048E000CE4680B5294F05003B78002B04D001202F
:1048F000C0BCB946B046F8BD532200212448FEF79B
:1049000053FF244C2000FDF7BFFF234B1C60234CBA
:1049100020001C30FDF7D4FF200001F01BFA204BD3
:10492000204E1C60204B9846002B04D0300000E045
:1049300000BF1E4B1860424600243378002A1DD069
:104940001B4A9046194A91469C4210D31BD14346BC
:10495000984701343378E4B2A342F5D22800FFF738
:10496000DBFB2800FFF7B8FB01233B70BFE74A469B
:10497000630012681B19DB009B58E9E700F0A4FFF5
:104980003378002BEAD000231B68FFDE4E0D002099
:104990006007002018070020B4070020140300203F
:1049A000B80700204D0D00200000000094060020F4
:1049B000C9580010F0B5DE4657464E464546E0B5AC
:1049C0008BB001F0E5F8002800D147E1C44BC54D9C
:1049D000994607AC2E68F269EFF3108172B613683E
:1049E000002BFCD0BFF35F8F31623000210001F05B
:1049F00025F9F269336ABFF35F8F0021116083F3F9
:104A00001088002800D129E16378082BE2D8B64A43
:104A10009B00D3589F466368002BDBD0A068984763
:104A2000D8E77F222179AE4B0A405600C8099B196E
:104A30001B18180001273030C678BE43C670C678F0
:104A40000337BE43C670002A00D10EE1A74ADB7CC3
:104A5000002A06D0A64A1278934200D293E19B1A0C
:104A6000DBB2002B00D0F9E0A24E62792078A36877
:104A7000B047AFE74B4601221B78012113434A465A
:104A8000137033234846D25C4E468A43C254C25CFC
:104A900004208243F2540133F25C27788A43F254B3
:104AA000F25C8243F254002000F01AFE6022237967
:104AB0001A40602A0DD0402A00D1F3E0DB06DB0E5D
:104AC000012B00D16AE1022B00D123E1002B00D1A0
:104AD000F7E020780021FFF7B7FC80212078FFF76E
:104AE000B3FC77E77E4B1B78DB0700D472E7824B81
:104AF000002B00D16EE7FCF741FA6BE7784B1A7890
:104B0000D20700D466E77D4A002A00D162E7187810
:104B10000007C00FFCF730FA5CE7754E734A0027B8
:104B20003378002A00D1B7E0754A9046BB4209D8D5
:104B3000BB4200D0B3E00137FFB29F4200D949E742
:104B4000BB42F5D9414609687A008C46D219D20099
:104B500062445269002AEED02078904701373378BA
:104B6000FFB29F42E2D935E72378614E5F4A98460B
:104B700000273378002A00D186E0624A9246604AD4
:104B80009346320046469046BB425ED800D078E05D
:104B9000534630009847434601371B78FFB2BB426B
:104BA000F2D24F4E532200213000FEF7FDFD1022BD
:104BB000FF21F01CFEF7F8FD30002022FF2113300A
:104BC000FEF7F2FD00F082FD4F4B002B00D101E714
:104BD000FCF7D0F9FEE62378454E444A9846002774
:104BE0003378002A47D0474A9246454A93463200D6
:104BF000464690469F421FD343D1534630009847C4
:104C0000434601371B78FFB2BB42F3D2344E5322E6
:104C100000213000FEF7C8FD1022FF21F01CFEF736
:104C2000C3FD30002022FF211330FEF7BDFD00F050
:104C30004DFD2379B370CDE65A4612687B00944649
:104C4000DB19DB0063445B68D8E75A4612687B00D7
:104C50009446DB19DB0063445B689AE70BB0F0BC59
:104C6000BB46B246A946A046F0BD62792078A3684B
:104C700000F04AFDAEE6404600F030FE3378002BEF
:104C8000C4D000235B68FFDE404600F027FE337887
:104C9000002B00D185E7F4E7002B00D19AE6002332
:104CA0005B69FFDE1948002800D112E700F018FD0B
:104CB0000021380008AA00E000BF002800D089E6E3
:104CC00007E7202A00D19EE0002A00D001E763799F
:104CD000092B00D9FDE60E4A9B00D3589F46C046DB
:104CE00060070020B80700205C670010000000008B
:104CF0004D0D0020215B00107D0F0010790F00107A
:104D000094060020DD580010750F00100000000010
:104D1000806700107023217A0B4200D0D9E6C809C1
:104D200084460F330B405B00F018B54E6044C07CE6
:104D3000002E06D0B34E3678B04200D284E0801BFD
:104D4000C0B200287CD1002A70D1AF4E6279934660
:104D5000022290465A4640468243012A00D1F3E09F
:104D60005A46002A00D0B4E64B4463443033DB7823
:104D700006AA9B07DB0F023213803800022308A922
:104D800000F046FC26E65A00D318A04ADB00126861
:104D9000D318002B00D161E71E6966E6237A0F2B3A
:104DA00000D996E6964A4B44DB78002A05D0954A0E
:104DB0001278934256D39B1ADBB2002B00D088E6C0
:104DC0009348914E00F08CFC00213800F36808AA4B
:104DD0009847002800D0FDE56022160023791E4088
:104DE0001A4200D075E663790A3B012B00D970E6C0
:104DF00000F076FC63790A2B00D1F8E0380008A9AE
:104E000000F0EEFBE6E5237A0F2B00D961E67C4A41
:104E10004B44DB78002A06D07A4A1278934200D2BB
:104E2000B6E09B1ADBB2002B00D052E67848764EF3
:104E300000F056FC00213800F36808AA98473CE7C8
:104E40000026002A82D044E6460030186F4EC0008B
:104E500036683618002A00D178E7002E00D138E6EF
:104E6000F068E5E7694A5E00F3181668DB00F6189B
:104E7000002E00D12DE6F068A4E7A27902927378A3
:104E80009A4207D07378002B00D02AE1029B002BB6
:104E900000D0C3E04B46029A380008A95A7000F0CF
:104EA0009FFB97E5E388012B00D012E608223378B8
:104EB00093434A461370A1E70220317806AB9A1C4F
:104EC0008B068908DB0F01400B4355E7737806AA70
:104ED000023213703800012308A900F099FB79E52C
:104EE000E088030AC0B20F2B00D9F2E549499A00C5
:104EF0008A58974608A800F0F9FB3800A179FFF717
:104F0000F1F8022233781343337063E5E388012B11
:104F100000D0DEE5082233781343CAE7022B00D124
:104F20008EE13D4B002B00D1D3E500E000BF020035
:104F3000002A00D1CDE5D37891781B020B433800CD
:104F400008A900F065FBB8E6E288002A0BD15A46B2
:104F50004B446344012A34D030229046984443465F
:104F6000DB789B071ED5002E00D133E5F06800F0FA
:104F7000B7FBF36808AA002138009847002000F02A
:104F8000AFFB34234A46D35CDB0700D522E535E787
:104F90001E4A5E00F3181668DB00F618002E00D1DA
:104FA00097E55DE73800FFF74FFA43460222DB78CA
:104FB00013434246D370D378012213434246D37041
:104FC000D1E72F3292469A445346DB789B07CAD5E5
:104FD0003800FFF755FA53464246DB789343524672
:104FE000D370D3785A4693435246D370BBE706AB8F
:104FF0009A1C3800012308A9167000F009FBE9E4A7
:10500000000000004D0D0020E8670010940600200D
:105010007D590010A867001000000000581EC0B2A3
:10502000FCF788F8002800D153E54378022B00D024
:105030004FE50121C279BB46931152110B400A4042
:1050400012015B0113434A4612782F318A431343FE
:105050004A4613700923984680444746C3788278AD
:105060001B021343C3180493049BBB4200D8DFE028
:1050700001227B7801920B2B04D1FB7801933B78C2
:10508000FF187B78042B00D023E5049B6E4ADB1BC2
:105090009BB203936D4B00261B78002A14D161E06C
:1050A000B34270D16A4B039A3900584690469847EC
:1050B000082802D94346834268D2644B01361B78E4
:1050C000F6B2B34200D204E5B342E9D9614B1B68A2
:1050D0000593059A730094469B19DB0063449B6813
:1050E000E1E73800FFF740F9B378574A574E9B463F
:1050F00000213378002A2ED0564A904632000E0006
:105100009246B3421ED800D0BBE5534B38009847B7
:10511000534601361B78F6B2B342F2D25322002135
:105120004846FEF741FB4B461022D81CFF21FEF7F4
:105130003BFB2022FF214948FEF736FB4B465A46EF
:105140009A70A3E642461268730094469B19DB00EE
:1051500063445B68DAE7380000F0C0FB3378002B6B
:10516000DCD08EE539005846039A00F0C1FB80463A
:105170008246082802D9039B98424ED9334B1B78AC
:10518000002B00D1A5E400239B68FFDE019B824633
:10519000002B0FD0BB78019A9A18D2B204E00133E9
:1051A000DBB2CE709A4205D04946C918C878FF28AC
:1051B000F5D08EE4330039005246284800F028FD2F
:1051C000224B57441B78B34200D34DE781E4244B74
:1051D000002B00D17DE400E000BF021E00D178E486
:1051E0003800137808A900F013FA66E52189FBF767
:1051F000A5FF021EF4D16CE4FBF794FF122302001A
:1052000008A9380000F004FA57E5164B002B00D12E
:105210005FE400E000BF02008DE6019B002BB9D1E6
:1052200039004246084B0D4800F0F2FC47441BE7AA
:105230000D4B5F46002B00D12CE6FBF799FE29E6CB
:10524000FBF778FF020073E6000000004D0D002020
:10525000F158001094060020DD580010730700205C
:105260000000000000000000710F001030B587B092
:1052700005000C000C2200216846FEF795FA6B46EB
:105280001D705C70042C4FD009D8022C34D0032C34
:1052900019D13C4B1A78520758D407B030BD052CB1
:1052A00011D1384B1A78D207F7D504211A788A43DE
:1052B0001A70354B1C68E269EFF3108172B61368FF
:1052C000002B09D1FBE7304B1C68E269EFF310813A
:1052D00072B61368002BFCD0BFF35F8F2162694662
:1052E000200000F0F9FCE269236ABFF35F8F002120
:1052F000116083F31088D0E70121224B1A788A438A
:105300001A701A780331A2431A7000225A701A7860
:105310008A431A701C4B1C68E269EFF3108172B665
:105320001368002BD8D1FBE7164B1A78D207B4D5F7
:1053300004211A780A431A70134B1C68E269EFF3D0
:10534000108172B61368002BC6D1FBE704211A78CE
:1053500003A88A431A7000210C22FEF725FA6B4637
:105360006A461D7305235373074B1C68E269EFF30C
:10537000108172B61368002BFCD0BFF35F8F2162DF
:1053800003A9ADE760070020B807002070B584B01E
:1053900001AC06000D000C2200212000FEF704FAEB
:1053A000012363700D4B25711D682670EA69EFF3C8
:1053B000108372B611680029FCD0BFF35F8F2B6297
:1053C0002100280000F088FCEA692B6ABFF35F8F98
:1053D0000021116083F3108804B070BDB80700206D
:1053E000002330B585B001AD6B80287006330822EC
:1053F00002A86B70FEF7DEF90C4B1C68E269EFF354
:10540000108372B611680029FCD0BFF35F8F23624E
:105410002900200000F060FCE269236ABFF35F8F7F
:105420000021116083F3108805B030BDB80700205B
:10543000F0B5C646804600B584B001AC0F0016003A
:105440000021082220001D00FEF7AEF9434623701C
:10545000072363700F4B65711D682771A660EA69A9
:10546000EFF3108372B611680029FCD0BFF35F8F91
:105470002B622100280000F02FFCEA692B6ABFF3A1
:105480005F8F0021116083F3108804B080BCB846A0
:10549000F0BDC046B8070020F0B54646D6464F4698
:1054A0008046C0B50C0015001E00002A2ED07023C7
:1054B0009946184B00279A466378052B0FD1E1785F
:1054C0008907890FB1420AD14A46A3781A4206D108
:1054D00053462000997800F05FFB002805D100209A
:1054E000E0BCBA46B146A846F0BD21004046FEF7F2
:1054F000C3FE0028F3D0A378DA09012A08D0089A5D
:10550000137023780137E418AF42D5DB0120E7E7B9
:10551000099AF5E76007002070B57F240C4063000E
:10552000144CC909E41864183034E378DB07DD0F44
:10553000002B18D1E3785B0701D5280070BD01214D
:105540000D4E4942306800F093FCE378DB07DD0F35
:10555000002B0AD1E3785B0708D40422E378012505
:105560001343E37002E00025E7E70025306800F010
:105570005FFCE2E760070020B407002070B57F25DC
:105580000F4C0D406D0064190600C8092418303412
:10559000E5780020ED0700D570BD0125E0782843AF
:1055A000E0703000FEF73EFF0028F5D10122E378DD
:1055B0009343E370E37803329343E370ECE7C04630
:1055C000600700207F22CB090A4004495200891855
:1055D000C9183031C878C007C00F70476007002075
:1055E00070B50A4E0500300008220C00FEF7E2F804
:1055F00000237F21F3602278B36091425B41280051
:10560000D90100220023FFF7B9FF70BD98060020E2
:10561000F8B5CE46474691462A4E80B50822070087
:1056200030000D009846FEF7C5F84B46B3600023E6
:10563000F381EC79A97924020C43231C444500D959
:1056400043469AB29046B381002C13D0002A1FD053
:105650004B46002B34D0131C402A1FD89BB29846CF
:1056600033787F2B20D80021174A43463800FFF7B4
:1056700085FF09E07F222B7838009A42644100239D
:105680000022E101FFF77AFFC0BCB946B046F8BD81
:1056900033787F2B11D980210022E6E740239BB28B
:1056A000984633787F2BDED9074C42464946200086
:1056B000FEF780F880212200D7E700210022D4E7FE
:1056C0000020E1E7980600202007002010B51422F2
:1056D00000210248FEF768F810BDC0469806002079
:1056E000014B18617047C0469806002010B5054C64
:1056F000010008222000FEF75DF80023A360E360AC
:1057000010BDC04698060020F8B53B4C1D0023781C
:105710000600DA09C9098A4213D00020002D00D002
:10572000F8BD364B002B03D021003000FEF796FD6C
:105730002369002B44D02200022130009847012029
:10574000EEE77F2B06D8A068002837D02A002C4926
:10575000FEF730F8A368E28959195219E38892B22A
:10576000E281A160934214D03F2D12D9A589A81AD5
:10577000071C80B240282FD82378BFB27F2B2DD8AA
:105780000021AA4235D01E4A3B003000FFF7F6FE4A
:10579000C6E72369002B05D022000121300098477D
:1057A00000280FD07F220021237830009A424941FF
:1057B00000230022C901FFF7E1FEB1E70020AFE7B7
:1057C0000120ADE700213000FEF73EFE30008021D1
:1057D000FEF73AFE0120A3E74027CDE7AA4207D013
:1057E000074C3A002000FDF7E5FF80212200CBE7BF
:1057F00080210022C8E7C046980600205D420010C4
:10580000200700202C2343430B4810B5C0184478D0
:10581000FFF738F8002801D1002010BDFFF73AF853
:105820000028F9D1002CF7D021000020FFF7CAFE94
:1058300001235840C0B2F0E7EC060020F0B547461F
:10584000CE4680B583B06E460F001900002332703B
:1058500005000622737000292FD0B01CFDF7AAFFA7
:105860002C246C43174BA1469846C1444B4600205C
:105870005978FFF751FE00280FD0002F12D10834BD
:105880004444230006CE06C308232C204543454448
:10589000220000206978FFF771FE03B0C0BCB94652
:1058A000B046F0BD4B46083444441F720822310014
:1058B000601CFDF77FFF0923E7E70021B01CFDF71F
:1058C00073FFCDE7EC06002010B52C220021024822
:1058D000FDF76AFF10BDC046EC06002010B52C2273
:1058E00000210248FDF760FF10BDC046EC06002015
:1058F000F0B54B7906000D0083B0032B0AD108796F
:10590000C400241A1234A4B2944203D81A4F7B78EC
:10591000002B03D00024200003B0F0BD09786918E3
:10592000B9624B78212BF5D10B780200C9187B1C8A
:105930000193BB1C009330000323FFF7ADFD00284B
:10594000E8D0AB79012B13D001233B71AB78022255
:105950003B70BB6AB81DD91DFDF72CFFB978002933
:10596000D9D03A00102330001832FFF707FED2E7F3
:10597000EB79FB70E8E7C046EC0600201F23F0B58A
:1059800014001278050083B01340012B17D1604E2C
:1059900020793378984212D16023180010401342C6
:1059A00008D020280BD163780B2B08D8594A9B00CC
:1059B000D3589F46002908D16378062B07D00020D2
:1059C00003B0F0BD721D002944D00120F8E7E37850
:1059D000212B6ED0222BF2D10020FBF7A7FB210058
:1059E0000200F3882800FFF713FE0120E8E70029F2
:1059F00017D00229E9D1A178474B3171002BE4D0AF
:105A0000002000E000BF0120DAE70029DDD1E178C5
:105A1000424B7171002B04D0002000E000BF002831
:105A2000CDD021002800FFF7DBFD0120C8E70029C9
:105A300049D1E379A2791B021343102BBFD832005E
:105A4000210028001832FFF7E3FD0120B8E7002904
:105A5000BBD1321D012321002800FFF7D9FD012011
:105A6000AEE70029B1D1E379A0791B020343E278C4
:105A7000A178181C102B00D9102080B2002943D027
:105A8000012B41D9330001270138317280B209332B
:105A900000900020FBF7C2FA381883B2002B00D127
:105AA0008DE73200210028000832FFF7B1FD012008
:105AB00086E7B26A002A00D181E721002800137826
:105AC000FFF7A6FD7CE7022900D07EE7E079A37905
:105AD00000021843E278A178041C102800D9102491
