:020000041000EA
:1000000000B5324B212058609868022188439860DF
:10001000D860186158612E4B002199600221596106
:100020000121F02299502B49196001219960352056
:1000300000F044F80222904214D00621196600F024
:1000400034F8196E01211966002018661A6600F04E
:100050002CF8196E196E196E052000F02FF8012189
:100060000842F9D1002199601B49196000215960AB
:100070001A491B48016001219960EB211966A021F2
:10008000196600F012F800219960164914480160C1
:100090000121996001BC002800D000471248134993
:1000A000086003C880F30888084703B5996A0420EC
:1000B0000142FBD001200142F8D103BD02B5186610
:1000C0001866FFF7F2FF186E186E02BD00000240BE
:1000D000000000180000070000035F00212200005C
:1000E000F4000018222000A00001001008ED00E03C
:1000F00000000000000000000000000074B24E7A12
:1001000000200420F7010010C3010010C5010010F9
:10011000C1010010C1010010C1010010C101001097
:10012000C1010010C1010010C1010010C701001081
:10013000C1010010C1010010C9010010CB01001065
:10014000CD010010CD010010CD010010CD01001037
:10015000CD010010CD010010CD010010CD01001027
:10016000CD010010CD010010CD010010CD01001017
:10017000CD010010CD010010CD010010CD01001007
:10018000CD010010CD010010CD010010CD010010F7
:10019000CD010010CD010010CD010010CD010010E7
:1001A000CD010010CD010010CD010010CD010010D7
:1001B000CD010010CD010010CD010010CD010010C7
:1001C00000BE00BE00BE00BE00BE00BE00F04BF888
:1001D000103800BEF2EB8871404F0110684F0110DB
:1001E0003402001090A31AE700202149086006C8D5
:1001F00081F3088810471F48006800282FD10DA4FC
:100200000ECC002902D000F012F8F9E71A491B4A77
:10021000002000E001C19142FCD1194988471949E9
:1002200088471949884700BEFDE701C901C29A42C3
:10023000FBD37047684F0110C0000020701C0020E5
:10024000186B01100000042000000420186B01103E
:1002500000100420001004200000000070470B482C
:1002600004F0A8FC0047EFF30580C0B2704700001F
:1002700008ED00E0000000D0701C0020D426002013
:10028000C930001095090010F131001057560000D8
:1002900006005250ABB36053502E0110060052506E
:1002A000861C0302602E0110060052505422A29DAB
:1002B000702E011005005250DE65F468186B0110B5
:1002C000F8B5C04610B5064C2378002B07D1054B76
:1002D000002B02D0044800E000BF0123237010BDB2
:1002E000701F002000000000401A0110044B10B5E0
:1002F000002B03D00349044800E000BF10BDC046F6
:1003000000000000741F0020401A0110F0B5040026
:100310008BB008000D00170001F0DAF9061E27D097
:10032000280001F0F3F9030606009B0F022B53D0BF
:10033000032B4CD0012B45D00C2001F003F9010018
:1003400000232000019300932022203300F0D0FFEF
:10035000B30638009B0F012B4DD0022B46D0002B4B
:100360003FD0163001F0EEF80100002301930FE0BA
:10037000182001F0E7F82023010020222000019638
:10038000009600F0B5FF032001F0DCF801000196B3
:100390006023200000932022403B00F0A9FF0322AD
:1003A0000221200001F0B6F8280001F0EFF914490D
:1003B000020002A804F0CAFB200002A901F09CF888
:1003C0000BB0F0BD0E2001F0BDF80100B8E70F2022
:1003D00001F0B8F80100B3E70D2001F0B3F8010017
:1003E000AEE7103001F0AEF80100BEE7143001F0C6
:1003F000A9F80100B9E7123001F0A4F80100B4E750
:10040000401A0110F0B5D94B57464E464546DE46D8
:100410009846D74BE0B59946D64BD74F9A4687B00A
:100420000021386800F0D0FD0323002500269B46FC
:1004300015E0002D00D0CFE05346186800F06CFBAB
:100440005346186800F076FB051E00D0C9E03868F6
:1004500000F0C4FD00282BD1643002F0C1F94346FE
:10046000186801F035F9041EE3D04346186801F01E
:100470004DF95B4680110342DBD0002D00D10AE12B
:100480000F2301361E40434619684B46F210186888
:10049000FFF73CFF4B46186800F024FE53461868EF
:1004A00000F03AFB3868250000F098FD0028D3D012
:1004B0004B461D6843461B6801213868059300F0D0
:1004C00083FD4B46186800F0BDFE00239B460026C6
:1004D0005C4602938033039302F070FA002934D013
:1004E000FA220023920004F001FC8346002E33D050
:1004F000012E00D11BE1022E00D0E0E0013C002CD7
:1005000000D03DE10A23032614240493280000F0C0
:10051000E9FD386800F062FD00283AD002F04EFA9A
:10052000002900D1BCE0FA220023920004F0DEFB97
:100530005B46C31A0F2BCFD85B461033181A02F054
:100540004FF902F03BFA0029CAD1FA21890004F0E0
:100550008BFB8346002ECBD1280000F0BDFE029B12
:10056000002B00D0CFE000F0E5FF029B01000193DB
:10057000039B802228000093202300F0B9FE012372
:100580002800029300F0AEFD386800F027FD002837
:10059000C4D14B461E68002300251C00029302F0C4
:1005A0000DFA002900D171E1FA220023920004F033
:1005B0009DFB8346002C00D170E1012C00D187E126
:1005C000022C00D12DE14B46186800F073FD00218C
:1005D000386800F0F9FC23E74B46186800F06AFD24
:1005E0002AE70121386800F0EFFC4B46186800F05C
:1005F00029FE0023039332330293283B00249B46B9
:100600005346186800F088FA5346186800F092FACA
:10061000002801D032230293386800F0DFFC002864
:1006200000D0A3E10F22039B0A2601331A40434660
:1006300019684B4603921868D210FFF767FE4B46C5
:10064000186800F04FFD0121386800F0BDFC4B4AEE
:10065000A300D558013E280002F0C2F800213868F6
:1006600000F0B2FC5B46581B02F0BAF8601C132184
:1006700004F0FAFA0C00002EE5D1029B013B029334
:10068000002BBDD14B46186800F014FD00213868DE
:1006900000F09AFCC4E64B46186800F0D3FDEFE684
:1006A000FA21890004F0E0FA5B46C31A0F2B00D947
:1006B00012E75B461033181A02F092F841E728005F
:1006C00000F00AFE56223B68FF329A5C002A00D0F6
:1006D0008EE0AA2252009A5C002A7AD15822FF3278
:1006E0009A5C002A66D1AC2252009B5C002B53D14D
:1006F0003F22049B280001331A40049205995211AD
:10070000FFF704FE02E700F015FF039B01005B42C8
:100710000093802220232800019600F0E9FD039B2E
:10072000013B0393002B72D000230293EEE6E0001E
:1007300004F07EFD04F0C4FD04F092FD029B0390E2
:10074000834200D1DEE000F0F5FE002301000193BA
:10075000009380222033280000F0CAFD9623013444
:100760005B009C4258DA039B0293CFE6B01F002047
:10077000A81F0020B41F00209C1F0020681A011031
:1007800000F0D8FE0023010001930093802228008E
:10079000203300F0ADFDB9E60B2000F0D3FE0023BE
:1007A000019350330100009310222800403B00F0D9
:1007B0009FFD9DE70A2000F0C5FE00230193403312
:1007C000010000931022303B280000F091FD3B68AF
:1007D00089E7082000F0B6FE0023019330330100C2
:1007E00000931022203B280000F082FD3B6875E753
:1007F000092000F0A7FE002301932033010000939D
:100800001022103B280000F073FD3B6861E70023D5
:1008100000240126029379E6039B022664240293B6
:1008200074E6300000F058FD03220021300000F093
:1008300071FE3000524900F05FFE20232B4264D14C
:10084000B42301355B009D4268DA300000F04AFCB9
:10085000386800F0C3FB002800D0B4E602F0AEF820
:10086000002926D0FA220023920004F03FFA5B46CA
:10087000C31A0F2B00D992E65B461033181A01F009
:10088000AFFF02F09BF8002900D08DE6FA21890025
:1008900004F0EAF98346002C00D08EE6300000F028
:1008A0001BFDEB0624D40135772DCEDD0025012478
:1008B000CBE7FA21890004F0D7F95B46C31A0F2B66
:1008C00000D96CE65B461033181A01F089FFD8E7AF
:1008D000002D0BD12A4A029B11009C46284A6144F4
:1008E000D35C0391002B1ED10224AEE7013DACE79F
:1008F00030000322002100F00DFE7F21300000F0C7
:1009000035FDD0E700F01AFE1FE77F21300000F030
:100910002DFDB42301355B009D4296DB300000F0D5
:10092000DBFC032491E7300000F0D6FC0322002119
:10093000300000F0EFFD029B114D002B0DD05B4607
:10094000A346039C059329783000013500F00EFD85
:10095000AC42F8D1059B5C469B467F21300000F0FD
:1009600005FD029B0A25013302936EE74B4618688A
:1009700000F0A0FB0021386800F026FB98E5C04697
:100980004C1A011010B5040006F0D8FA200000F04F
:10099000F9FDF9E7F0B5CE46474680B5294CA544A8
:1009A00007F0C2FC0F2001F007F9D02380221B06BC
:1009B00012029A6105AB08AC1800984600F06AF87C
:1009C000200000F0D5F81A231F4A2049009302A8FE
:1009D000013300F007FB002303AD1D4A1D495FAE44
:1009E00028000093013300F0FDFA300000F048FBCE
:1009F00004AB1800994600F02BFE4346164F30001A
:100A00003B60164B02A91C60154B1D609846154BA8
:100A1000154D1E604B462B6000F04AFB434628688C
:100A2000196800F053FE3968200000F04BF928687F
:100A300000F084FE0D4805F095FB07F067FB2000F1
:100A4000FFF7A0FF74DDFFFF801A0600CC13002023
:100A5000A0860100C4130020B41F00209C1F0020AA
:100A6000AC1F0020A81F0020B01F002005040010AC
:100A7000032808D1D0221206054B52681B68D20603
:100A800002D402229A60704701229A60FBE7C046B6
:100A9000A41F002070B51D4D04004560172001F013
:100AA0008BF8032001F088F8042001F085F8052078
:100AB00001F082F8D02380221B0612049A620822D9
:100AC0009A6208329A6210329A62002117201F3A05
:100AD00000F0EEFF00220121032000F0E9FF0022D8
:100AE0000121042000F0E4FF00220121052000F094
:100AF000DFFF0023A360064B25601C600122042158
:100B00000320044B00F0ECFF200070BD3800800093
:100B1000A41F0020710A0010D0231B065B684268E6
:100B2000134003607047C04603680120DB0D984303
:100B30007047C046036801205B0998437047C04670
:100B4000816802004B1E58424341D8B2012901D1AD
:100B5000002393607047C046816802008B1E584294
:100B60004341D8B2022901D1002393607047C046A7
:100B700070B50500122001F01FF8132001F01CF8D9
:100B8000142001F019F8152001F016F8162001F0D4
:100B900013F8062001F010F8072001F00DF80820E6
:100BA00001F00AF8092001F007F80A2001F004F822
:100BB0000B2001F001F80C2000F0FEFF0D2000F0EA
:100BC000FBFFD02480232406DB02A36280231B03C7
:100BD000A36280235B03A36280239B03A362802321
:100BE000DB03A36200220121122000F061FF00223A
:100BF0000121132000F05CFF00220121142000F0ED
:100C000057FF00220121152000F052FF0022012190
:100C1000162000F04DFF4023A3624033A3628033CF
:100C2000A3620133FF33A3628023DB00A36280232E
:100C30001B01A36280235B01A36200220121062025
:100C400000F036FF00220121072000F031FF0022D2
:100C50000121082000F02CFF00220121092000F0D2
:100C600027FF002201210A2000F022FF002201219B
:100C70000B2000F01DFF002201210C2000F018FFC6
:100C800080239B016362281DA3610A227F2104F057
:100C9000A9FF00242800A022EC812C610849520001
:100CA000143004F0A5FFAA235B002C60EC525823FB
:100CB0000026FF33EE5401332800EE5470BDC046C9
:100CC000B41A011001607047F0B55746DE464E4633
:100CD0004546AA23E0B583B001915B00C25C58236E
:100CE0000092FF33C35C8246002B01D00232009297
:100CF00053461D1D092353449B4652460E239B1AFF
:100D000098460123D0265F462C00C3469946A84644
:100D100036065B464D461B199D400A207562002130
:100D2000B56101F045FD7368B5626279DB045B0E65
:100D3000227063710134BC42EBD1534618684546BA
:100D4000002800D10CE1FFF7E7FE53461868FFF7D3
:100D5000EBFE002800D105E129230124019A13703C
:100D6000009A01219446930063441B0114335344B9
:100D700098460122002352429946434693460093E7
:100D80006879AC4600230500009A31E00420FF306A
:100D9000864200D19CE00130864261D20220FF30C1
:100DA000864200D18AE00130864200D072E060467F
:100DB0000078184101420DD028001841014209D1A4
:100DC0000127B846AB26504647467600805D7840FE
:100DD0005746B855AC2056464000305C002803D03A
:100DE0003920019E3055013401330232072B1BD0CC
:100DF000052C19DC8020168840000642C6D1080068
:100E000098400542F0D15846013000D174E0584670
:100E1000F02770403F023842E6D101980133065571
:100E200002320134072BE3D1009B65461033009357
:100E300008239C46E1444B460135282BA0D1052CC4
:100E400006DC0622019B0021121B181904F0CAFEC1
:100E5000200003B0F0BCBB46B246A946A046F0BD98
:100E6000864217D1604600781841014263D02800BD
:100E7000184101425FD1AC26504601277600805DC3
:100E800078405746B8550028AED0E020019E305536
:100E90000134A9E76046007818410142A4D0280037
:100EA00018410142A0D10127B8465826504647466E
:100EB000FF36805D78405746B85595E70800984062
:100EC000284046427041AA2657467600B8558BE71F
:100ED000604600781841014200D185E7280018419A
:100EE000014200D080E7562750460126FF37C05DFB
:100EF00070405646F05577E78020400106421FD0EB
:100F000056275046FF37C05D002803D1019FE130CE
:100F100038550134C020800180468020400183463E
:100F20008027BF013E4200D177E7E220019FC34600
:100F30003855013471E7AC2056464000305CA2E7DA
:100F400056275046FF37C05D002803D0E120019F9F
:100F50003855013480208001804600208346DFE739
:100F60000024FDE653461868FFF7E4FD002804D08E
:100F70002B23019A01241370F2E653461868FFF7F9
:100F8000DFFD002807D0009B9B0712D45223019A53
:100F900001241370E4E653461868FFF7DDFD0028CE
:100FA000DED0009B9B0709D45123019A01241370C2
:100FB000D6E64F23019A01241370D1E65023019AFB
:100FC00001241370CCE6C046D02380221B06920178
:100FD000002901D05A6170479A61FCE710B500F012
:100FE000BBFA10BD70B5050008001C001100286098
:100FF00005F040F90321049800F042FD0321200090
:1010000000F03EFD00220121049800F051FD002275
:101010000121200000F04CFD0D4E3378BFF35B8FB3
:10102000DB0701D5280070BD300007F0B1F90028BA
:10103000F8D0049B220364041443DA0122431A24E7
:10104000044B224330005A6007F0BEF9EAE7C0467D
:101050008C1F00200013002010B5002482B000680F
:10106000C9B2009405F030F902B010BD10B50024EB
:1010700082B00068C9B2009405F08EF902B010BDCC
:10108000002310B5036004000E2000F095FD182029
:1010900000F092FDD023802280211B06D20149045A
:1010A0005A620A2059625A6101F09AFB200010BD71
:1010B00001607047094B0A4A10B5C2503C21C21862
:1010C00004230068FFF7C8FFFA20400001F088FB06
:1010D000D02380221B06D2015A6110BD0C200000D3
:1010E00000AE8D1003008C33F0B51C0080235746F2
:1010F0004E464546DE469A468033994680339846AA
:101100000023E0B589B00293E02349499B00019395
:10111000484B02008C468027A026C0250393B023AD
:10112000624404900692BF00B600AD000593002013
:10113000049A3F4B3C21D05405983F4BA346D054D2
:1011400080233E485B01135210680423069A0790DF
:10115000FFF782FF40233649049ABC4653542100CE
:1011600080202F0080392EE0002540335446029A1B
:101170008A1A145D002C00D12B004C46145D002C03
:1011800000D003434446145D5B10002C00D00343A1
:101190006446145D5B10002C00D00343945D5B102B
:1011A000002C00D00343D45D5B10002C00D003431F
:1011B000019C5B10125D002A00D00343039A8B54FC
:1011C00001318B4505D00B78002BCDD02025602335
:1011D000CCE7049B3C211B68069A07930798812360
:1011E0003D006746FFF738FF1549039A8C46624475
:1011F00003928022D20094465C46019A059B624489
:101200000192029A0133DBB2624405936444029274
:10121000654466446744E044E144E244B42B86D12B
:1012200009B0F0BCBB46B246A946A046F0BDC046D8
:101230000C200000012000000D2000000E20000006
:1012400000FCFFFF70B58023D02580262D06760494
:10125000DB010400AE616420AB6101F0C1FAFA2049
:101260006E61800001F0BCFA114B124A3C21E25041
:10127000114B124AE250124B124AE250124B134ADF
:10128000E250134B134AE250094B2068E218142332
:10129000FFF7E2FE20008022002152010C3004F012
:1012A000A1FC002320006360A360FFF71BFF70BD5B
:1012B0000C20000000AEA82610200000D30040A1A2
:1012C00014200000C0DA1281182000007FA4A6D5E7
:1012D0001C200000C18D14AF802210B50021040035
:1012E00052010C3004F07EFC00236360A36010BD4B
:1012F000F0B5CE464746150080B5002B27DD9C464D
:101300008046089E079BF7010C37B844B444D418B4
:10131000002D16DD1F2E1ED8802307987F2805D8A4
:101320000A781A40571EBA4147463A545B1001D119
:101330000131803301308442F0D1803B5A1E934109
:10134000C918802399460136C8446645E0D1C0BC1F
:10135000B946B046F0BD802300205B1001D10131B9
:10136000803301308542F8D1E7E7C046F0B5454605
:10137000DE4657464E46E0B5436804000D0087B090
:101380000F2B00DD82E00A2900D1A5E0203DEBB261
:101390005F2B74D800F0DCF8636807001900059330
:1013A000A368C800DA00990203000C33C918431C73
:1013B0000293831C0193C31C9846031D9C46431D46
:1013C0009946831D9B46C31D9A46039063462000A1
:1013D000ED001600AD1AD44661187D195C46012750
:1013E00083469A460836AB5C1F2A40D803987F286C
:1013F00001D8D80908705800049002987F2803D8B3
:101400005800C009384048709800049001987F281F
:1014100003D89800C00938408870D800049040462E
:101420007F2803D8D800C0093840C870180104903C
:1014300050467F2803D81801C00938400871580168
:10144000049048467F2803D85801C00938404871A5
:1014500098017F2C02D8C009384088716046DB01B2
:101460007F2804D8FF200340581E8341CB710132EE
:1014700080319642B7D15C46059B0133636007B06B
:10148000F0BCBB46B246A946A046F0BD002343606F
:10149000836801338360032B00DC77E7124BE2188B
:1014A000124BE618124BD1180023D058C850043301
:1014B000802BFAD18032B242F4D180220D4B002130
:1014C000E018D20004F08EFB0323203DA360EBB2B2
:1014D0005F2B00D85EE7D2E70023436083680133C7
:1014E0008360032BCBDDD9E70C0400000C10000057
:1014F00000FCFFFF0C0C000070B50C000978050023
:10150000002906D028000134FFF730FF2178002998
:10151000F8D170BDCB4310B5D443DB17E41722409C
:101520001940102900DD10214160042A00DD042249
:10153000826010BD00487047541E0110004870477B
:1015400054200110014B8000C0587047B42901108D
:1015500000487047B4260110014B1878C0B270479C
:10156000CC2600200122014B1A707047CC260020A7
:101570000022014B1A707047CC2600207047C046ED
:101580007047C04610B582B0040001F017FA002978
:101590000BD0FA220023920003F0A8FB25490A6829
:1015A000801A09280AD802B010BDFA21890003F078
:1015B0005BFB20490A68801A0928F4D90A32002006
:1015C0000A6006F0E3FB002809D11B4A13680133C7
:1015D000142B14DD14231360184B1870E3E700225A
:1015E000154B694620001A60FFF76EFB002808D1F2
:1015F000134C2378002B0BD100232370D3E7136007
:10160000D1E705F00BFC002809D005F00FFCCAE774
:10161000002300220121002006F0D4FBECE76B46FA
:1016200000220121002006F0CDFB0122044B1A709C
:10163000B9E7C046C81F0020A01F0020CC2600200C
:10164000CD2600207047C046002070477047C04636
:10165000F8B500230360050006F07EFE1F211D2063
:1016600000F00EFA002200211D2000F021FA0021D6
:101670001D2000F08DFA134B11201A68C0239B0126
:101680005340E022D20113400F4AD024136000F0EF
:1016900093FA102000F090FA022000F08DFA8027D3
:1016A0008023042624067F029B02A3620022676235
:1016B00001216662112000F0FBF92800A761A661F4
:1016C000F8BDC04600C0044000D00440016070472F
:1016D00030B583B06B46DC1D0A2305002200237061
:1016E0006B21093B0068FFF7B7FCFF232200237042
:1016F0006B212868FE3BFFF7B9FC40232078984314
:10170000203843425841C0B203B030BD30B583B039
:101710006B46DC1D08230500220023706B21073B6C
:101720000068FFF799FCFF23220023706B212868D3
:10173000FE3BFFF79BFC207803B030BDD023802216
:1017400010B51B0682B052025A616A460E4B040065
:1017500093806B2101AA02230068FFF77DFC6A4693
:1017600009236B211371206801AA083BFFF774FC61
:101770006A46FF236B2113712068FE3B01AAFFF725
:1017800075FC02B010BDC04600B7FFFF04228021E7
:10179000054B49001A60054A13680B42FCD050689B
:1017A0000004000C7047C04600E0044000C0044044
:1017B00000487047202B011000487047342B01105F
:1017C00000487047FC2A011070B500280AD1C121D9
:1017D000174B18481B6889001A7882705B78C370B1
:1017E000018070BD03281ED8114B8000C558280009
:1017F0000FF09AFAC0B2011C1F2800D91F21C9B2EC
:10180000002812D000230B48821CEC5C01331480AA
:10181000DCB20232A142F8D8C0230131C9B249007A
:101820009B001943DCE70020DBE703490148D7E7C9
:10183000081300202420002002030000D0231B06F0
:101840001B68F0B59A00454690464146884ADE46F8
:101850005258574693465A1E934130224E465B4299
:101860001A40844BE0B59C46834B08269A4683B0C9
:10187000624401923500083DEA08130001990833DB
:101880009B005C58002C23D05B46002B2AD0012300
:101890000F27994639002140274213D04B46524624
:1018A0004046AB4012581A420CD1072208002A4089
:1018B000920090400200EB0870483C339B001A50A5
:1018C0002800D84724090135002C01D0B542E1D3C6
:1018D0000836282ECED103B0F0BCBB46B246A9468E
:1018E000A046F0BD0F2319002140234207D04746F0
:1018F0000E3BAB406048C059184200D18DE023092F
:10190000F11F002BE4D00F22100018401A420FD014
:10191000012345468B40584A52591A4208D10722A2
:10192000CB08114089008840544A3C339B009850B2
:10193000230AB11F002BCBD00F22100018401A42EF
:101940000FD0012345468B404B4A52591A4208D1C9
:101950000722CB08114089008840484A3C339B004D
:101960009850230B711F002BB2D00F22100018408B
:101970001A4241D1230C311F002BA9D00F22100095
:1019800018401A4252D1230DF11E002BA0D00F2275
:10199000100018401A425AD1230EB11E002B97D0C6
:1019A0000F22100018401A420FD0012345468B40E9
:1019B000314A52591A4208D10722CB0811408900F6
:1019C00088402E4A3C339B009850240F721E002CF6
:1019D00000D17DE701235146404693400958194202
:1019E00000D075E70721D3080A40920094403C33A9
:1019F000224A9B009C506BE7012345468B401E4AC0
:101A000052591A42B6D10722CB08114089008840AA
:101A10001A4A3C339B009850ACE707231D40AD00A9
:101A2000A940164B3C329200D15068E7012345464D
:101A30008B40114A52591A42A5D10722CB081140B6
:101A4000890088400D4A3C339B0098509BE7012356
:101A500045468B40084A52591A429DD10722CB086D
:101A6000114089008840054A3C339B00985093E719
:101A70000422002000410140A02600200040014037
:101A8000094A830094464022634410B51C68C00094
:101A90006240C02414408022520113431C60034B57
:101AA0009C466044416010BD04C0014000400140BC
:101AB0000A4B80009C4604236044002901D00C237B
:101AC0000821002A00D10B00026853400C221A4062
:101AD00080235B01184302607047C04604C0014088
:101AE000F8B51E00D0231B061C680700631E9C412E
:101AF000302364421C40224B15009C46C30807203B
:101B00001A003840800081403C321E4864449200F4
:101B10009B001150E418002D11D080239B011C4321
:101B2000D02321601B061C68174FA4003B59002BD3
:101B300011D0002E1ED03E51002D16D1F8BDC0236D
:101B40009B011C43D02321601B061C680E4FA40080
:101B50003B59002BEDD1002EEED000220D200B4979
:101B60003E5100F039F9002DE8D001210D2000F0A0
:101B7000E3F8E3E70D20054900F020FADBE7C04673
:101B80000041014000400140042200203D180010A7
:101B9000084B80009C466044002905D080239B01AF
:101BA0001843402303607047C0239B011843402320
:101BB0000360F8E704C001400123D02283401206ED
:101BC00093629361094A83009446402263441968F2
:101BD000C0004A40C02111408022520113431960C5
:101BE000034B9C46052360444360704704C001409A
:101BF0000040014070B5EFF3108C72B60D4D2B68AC
:101C0000002BFCD0BFF35F8F0724CB08C618C05C45
:101C100001230C40A3401C000440034207D10343AE
:101C20003370BFF35F8F2C608CF3108870BD100091
:101C300001F0E0FA2C0100D0F8B54746CE468846C0
:101C400080B5EFF3108C72B6214D2C68002CFCD0BF
:101C5000BFF35F8F9A422CD8D4080727055D061979
:101C600001241740BC402C421FD007210127894680
:101C700009E0D408055D06194C4639001440A1401E
:101C80000C00294211D001329342F2D2012040428D
:101C9000BFF35F8F00220E4B1A608CF31088002870
:101CA0000FDBC0BCB946B046F8BD2C431000347001
:101CB000EEE7BFF35F8F00232B608CF310880120C9
:101CC00040424346002BECD0089801F093FAC046FE
:101CD0002C0100D0024B18688007C00F7047C04627
:101CE00000C006400021044B044ABFF35F8F02C3CB
:101CF0009342FAD17047C046000100D0800100D065
:101D0000044A1078431CDBB2172B00D91023137040
:101D10007047C0461813002000B5054B83B0010082
:101D2000009318221F230348FFF786FF03B000BD6E
:101D3000782B01100C22002001238340002904D0BD
:101D4000034A1360034A13607047034A1360FBE7BA
:101D500080E200E000E100E080E100E0012282405A
:101D6000034B1B6813405A1E9341D8B27047C046BC
:101D700000E100E0024B10309B688000C0587047C3
:101D800000ED00E070B50D00EFF3108672B60F4A5B
:101D90001368002BFCD0BFF35F8F0D4B10309B6896
:101DA00084001B590B4A934203D09D4201D001F09D
:101DB00039FA074B9B681D51BFF35F8FBFF35F8FED
:101DC0000022024B1A6086F3108870BD240100D0F7
:101DD00000ED00E0CD010010F0B557464E46DE465E
:101DE0004546E0B585B0060002911700EFF3108B71
:101DF00072B6674A1368002BFCD0BFF35F8F0025D3
:101E0000644B5D579A46002D00DAA5E06B00624CEA
:101E100003935B199B009846A146C1444B4652462A
:101E20009B79103613705D4BB2009B6801929958F4
:101E30000B1B2F2B34D95A4B994200D0A5E0039BA2
:101E4000584A9C46584B6544AD00635343460233A1
:101E50006519E418554B0121043B1B1B1B055B0D49
:101E600013436B80524BEF71AB80FF23AB71029B2E
:101E7000AB604B460B431900484B019A9B68995045
:101E8000BFF35F8FBFF35F8F0022414B1A608BF36C
:101E9000108805B0F0BCBB46B246A946A046F0BDCE
:101EA00001200A008243D379BB422FD845464E46D3
:101EB000130040491B1B5B415943090D3A4B6353C7
:101EC0003A4B02356519043B5B1B1B05354D5B0D19
:101ED0002B4373800426B446E0444444131F1B1B69
:101EE0004C46A17102991B05A16049465B0D2B432D
:101EF000A380314BE77101431360BDE75800C01860
:101F000080002018C679BE422CD902000623D35681
:101F1000002BF3DA101D8246BD2000028046042605
:101F20007642B446E14450464E46361A3005400DDE
:101F3000824656461B48957106439680039A9446FE
:101F400065441D4AAD00641922604246A371029B9C
:101F5000A280E771A3608FE701F064F90025534682
:101F60005D5753E7101D8246908840050015844652
:101F70004046D444664604302018301AE026000556
:101F8000400D360230438046C9E701F04BF956E771
:101F9000240100D0D22600201C13002000ED00E018
:101FA000CD01001000E0FFFF00A1FFFF4C13002057
:101FB00000BDFFFFAAAA000001488047F0B5DE4639
:101FC00057464E464546E0B50C0083B0EFF3108A05
:101FD00072B65A4A1368002BFCD0BFF35F8F1022F1
:101FE000914681444A46564B96009B689D59554BF5
:101FF00098469D4205D0A54216D0534FEB1B2F2B80
:1020000014D94F4B9B689D51BFF35F8FBFF35F8F18
:1020100000224A4B1A608AF3108803B0F0BCBB461A
:10202000B246A946A046F0BD1D00EAE70123834061
:102030009B465A46454B1B681A4000925A46444BF1
:102040001A60BFF35F8FFEF70EF90190002803D0EE
:10205000814501D001F0E6F801232A009A439368F4
:102060009C4208D15FE04B005B189B00FB1899680D
:10207000A14211D01A00062151560029F3DA009B23
:10208000002B05D05A46334B1A60304B1A60B8E724
:102090005A462F4B1A60B4E706215956002921DB16
:1020A0004A00501880003C188046A0689860E0798B
:1020B000D871062020569871002824DBA488F81ACD
:1020C0006405241544440019E0240005400D240251
:1020D000204398805218204B9200BF181A7819702C
:1020E000BA71CCE70199002910D1FF3191711B49D8
:1020F000918019490A789A71194ADB1B5B415A434E
:10210000120D0A70BBE7BD200002E2E7154A16492E
:10211000D21A083A5002400D0143998013495208DF
:102120000A43DA80ABE70621515613000029B7DADB
:10213000019A002AEAD14546DBE7C046240100D0D7
:1021400000ED00E0CD0100101C13002000E100E0D4
:1021500080E100E080E200E0D226002000BDFFFF29
:10216000AAAA00005613002000F0FFFF00F8FFFFAE
:10217000F8B5012504000543FEF775F8EFF3108C60
:1021800072B6214A1368002BFCD0BFF35F8F1F4E3D
:102190002100B7681E4A1F4B891A49414B431B0D4A
:1021A00059B28300F858A8421CD00623D3568B425C
:1021B0001CD01223D3568B4222D01E23D3568B42DF
:1021C00020D02A23D35603208B4210D0124B1A78EA
:1021D0001970A271BFF35F8F00220B4B1A608CF352
:1021E0001088F8BDB2680D48D050EFE700204300DA
:1021F0001B189B00D218FF239371094B9380E5E7CE
:102200000120F4E70220F2E7240100D000ED00E015
:102210001C130020AAAA0000D2260020CD01001025
:1022200000BDFFFF054B064A1360064A136053606A
:102230009360D360136153619361704780808080A5
:1022400000E400E004E400E0024B9C4661448900A5
:10225000016070474000003483680B4810B5844625
:1022600061446244090112019A18591854684B6874
:1022700001209C4201D802D00020C0B210BD1268DB
:102280000B689A42F9D8F7E7FFFFFF0F0A4B19686E
:10229000EFF3108072B60A68002AFCD0BFF35F8F9C
:1022A0001B68BFF35F8F00221A6080F3108840BF65
:1022B000002000217047C046AC260020F8B55746E4
:1022C0004E464546DE46E0B599460CAB1C780DAB54
:1022D0001B78060090469A460768002C11D1BC7BFB
:1022E000002C42D065003B682D19033D59194B78ED
:1022F000BB73002B00D1FB7300238B704B700B70F2
:1023000004E065003B682D19033D5919B2682A4B5A
:1023100094464246E3181B0163441A604A465A60D9
:102320000A9A9A600B9ADA6000238B704B700B70DC
:102330007B7B9B46002B2BD022005946B8687B68DC
:1023400098473A68002816D05B4658465B005B44C5
:102350005519033BA870D118D35C002B00D06B70CB
:102360005B460C707B73A34513D0F0BCBB46B246F2
:10237000A946A046F8BD5B465B005B44033BD3180F
:102380009C705119525D002A00D05A705B460B7048
:102390007C7342464B46307D00F09AFB051E06D00A
:1023A0005346002B03D12100306800F0B3FD0E9B93
:1023B000002BDAD01D70D8E7FFFFFF0FF0B5DE4627
:1023C0004E46574645460023E0B58DB00A936B4B09
:1023D0008200D3580B90994600239B464B460793A7
:1023E00000F0ECFA079C06000F006268EFF310851E
:1023F00072B61368002BFCD022000794BFF35F8FE6
:102400002468637B9946002B67D092685C4B9046AA
:102410004B441B01984443461A685B68100019003E
:10242000801BB94100295FDD0B9800F051FB0023B0
:102430000026984600279A46079C6368BFF35F8F83
:102440005A461A6085F310885346002B08D100289D
:10245000C6D10DB0F0BCBB46B246A946A046F0BD01
:102460000A9B414618024B461843D04708900991F1
:102470006268EFF3108572B61368002BFCD00794E6
:10248000BFF35F8F0899099A002A48DB114303D0F4
:10249000079B1B69002B5DD1079B1B68D97B00291B
:1024A00007D04A00521819688C4649466244033ADC
:1024B00051704A46DA734B46079A013BD168CA5CB1
:1024C0000132CA545B46079A13615368BFF35F8FAA
:1024D0005A461A6085F3108882E700230026984642
:1024E00000279A460020A7E7002901D100289BD1A8
:1024F0000021200000F090FC43461E685F689B6846
:10250000079A9A464346DB689846D3684B44013B9A
:102510001B780A931B020343136100208CE7236995
:10252000002BB9D033003C005B1A94411A00230001
:10253000A74219D89F421BD059460491012103910B
:102540004946029141460191514607980091FFF793
:10255000B5FEB7E700F032FA089A099B06000F00B3
:1025600092197B419942E5D901225242D317E3E700
:102570009642E1D901225242D317DDE7902600208E
:10258000FFFFFF0FF8B557464E464546DE46E0B51D
:10259000404D81468A466A68EFF3108872B6136828
:1025A000002BFCD0BFF35F8F2E68B47B002C39D09A
:1025B000670033683F19033FDB195A78B273002A6A
:1025C00000D1F273A968344A8C464946A218120118
:1025D0006244116051465160304991600021D160E0
:1025E000997059701970737B9B46002B35D022006F
:1025F0001900B068736898473268002820D05B469D
:1026000058465B005B44D719033BB870D118D35CC4
:10261000002B00D07B705B460C7073735C451DD043
:10262000002626E06B68BFF35F8F1C6088F310887C
:1026300001204042F0BCBB46B246A946A046F8BDC8
:102640005B465B005B44033BD3189C70D119D25DA1
:10265000002A00D05A705B460B7074734A4653468A
:10266000287D00F035FA061EDAD02100286800F037
:1026700051FCEB681B19013B19786B68BFF35F8F46
:1026800000221A6088F310880020002ED2D10802A0
:102690002043CFE764130020FFFFFF0F8D220010BF
:1026A00010B5124C6368002B04D00A211048FFF7C4
:1026B000CBFD10BD23000F4A1021206800F0CAFA9C
:1026C000032000F06FF9032000F072FA03200A499A
:1026D00000F0B8F9FFF714FB084B9C460323604455
:1026E0002375074B80006060DC60DEE76413002028
:1026F000AC26002059220010BD23001040000034F9
:1027000090260020F0B504000D0006267642F7174B
:10271000C64636196F4100B58F4213D810D000F06D
:102720004DF932003B00121A8B41002B14DC002BB8
:1027300037D02900200000F075F980BCB846F0BD04
:102740008642ECD90026002700F038F932003B0021
:10275000121A8B41002BEADD30003900FFF712FF1F
:102760000028E6DB00239846BC460F4A0F4F7B6AE1
:102770009C4504D8B96A8E42DBD99C45D9D11168F1
:10278000EFF3108072B60B68002BFCD0BFF35F8FA5
:102790001368BFF35F8F4146196080F3108820BF34
:1027A000E5E7002AC5D0D7E7AC2600200040054069
:1027B00070B504000D0000F001F902000B002000CC
:1027C0002900801859418B4205D802D0FFF79AFFA3
:1027D00070BD8242FAD901204042C117F6E7C046D7
:1027E00070B5060000F0EAF8FA2204000D0000239C
:1027F00030000021920003F03DF9001969418D423B
:1028000005D802D0FFF77EFF70BD8442FAD90120BF
:102810004042C117F6E7C046F8B5CE46474680B5F8
:1028200006000C00FFF7AEFE00280CDC2D4B00204C
:10283000596A8C4203D89B6A0130B34245D3C0BC6D
:10284000B946B046F8BD20BF274D6A68EFF3108740
:1028500072B61368002BFCD0BFF35F8F2B68C1B238
:102860009C465B7B8B4235D0FF2303405A00914648
:1028700062461268994490464A464244033A927826
:10288000002A1DD0EA68000A90464344013B1B78A9
:10289000C0B2834221D06B68BFF35F8F00221A6001
:1028A00087F310880F4A0020536A9C42C7D8926A67
:1028B0000130B242C3D2E01A421E9041C0B2BEE71C
:1028C0002B699842E7D12A61E5E7601A431E9841D7
:1028D000C0B2B4E7FF230340D4E7604600F01AFB20
:1028E000D9E7C0460040054064130020F0B5D64645
:1028F0004F464646C0B5EFF305833F22134018000C
:102900001038EFF3108C72B6204D2A68002AFCD0E4
:10291000BFF35F8F0122110081401D4C8846616327
:102920001C4917000E788A463100C1400F400A4208
:1029300009D1BFF35F8F2F608CF31088E0BCBA46DB
:10294000B146A846F0BD14498200646A51588C42D1
:102950000FD3124BD25843469E4353461E70BFF3CB
:102960005F8F00232B608CF31088002AE6D09047FD
:10297000E4E70B4A9B00904643441A681A60BFF391
:102980005F8F00232B608CF31088D7E7280100D0DD
:1029900000400540D3260020B0260020F42100206E
:1029A000D03F054010B50100024A0348FFF722F965
:1029B00010BDC046A02B0110D1260020034B596A40
:1029C0000A00986A596A8A42FAD170470040054065
:1029D00070B504000D00124A536A1900966A536AD2
:1029E0008B42FAD13000190024184D41AB4211D866
:1029F0000ED02B000A494A6A9A42FCD307D1084AF2
:102A000002E0516A994202D1916AA142F9D370BDA4
:102A1000A642EED9012301246442E5175B42E9E7AF
:102A200000400540064A536A9942FCD807D1044B3E
:102A300002E05A6A914202D19A6A8242F9D37047FF
:102A40000040054070B504000D00EFF3108672B62B
:102A50001A4A1368002BFCD0BFF35F8F002D1BD0E8
:102A60002000FFF787F9164981420AD02000FFF7BE
:102A700089F901212000FFF75FF90123A340114AE2
:102A80001360114BA400E550BFF35F8F00220B4B86
:102A90001A6086F3108870BD0B4BA200D55001223E
:102AA000A2400A4920000B7893430B700449FFF7BA
:102AB00085FA00212000FFF73FF9E5E7280100D063
:102AC000ED28001038600540F4210020D3260020B6
:102AD000F0B54F46D6464646C0B507002F4C616A52
:102AE0000D00A66A616AA942FAD18B4208D805D0C6
:102AF0000120E0BCBA46B146A846F0BDB242F7D9C3
:102B0000EFF3108A72B6264801680029FCD0BFF3A3
:102B10005F8F0125BD402349204C884609788946AE
:102B20002943C9B28C46414660460870391D1E488B
:102B3000890065630A51B9000B50216A00202942BF
:102B400019D0616A0800A66A616A8142FAD18B4293
:102B500019D801D1B24216D8CC451DD00F4B1F2039
:102B60001D625D6301230740BB40104A1E3813609D
:102B700043464A461A70BFF35F8F0022084B1A6023
:102B80008AF31088B5E70020BFF35F8F0022044B63
:102B90001A608AF31088ACE70120ECE7004005409A
:102BA000280100D0D3260020B026002080E200E0DB
:102BB000EFF3108C72B60A490B68002BFCD0BFF300
:102BC0005F8F01238340074A0748136202789A43C4
:102BD0000270BFF35F8F00230B608CF31088704787
:102BE000280100D000400540D326002070B5050024
:102BF00014001600002915D00C00002A12D080689D
:102C00006B689847296800280ED073009B196200F2
:102C1000033B1219CB18033A9C7088188A5C002A6F
:102C200015D10670200070BD63001B197200033BB4
:102C30009219CB18033A9E7088188A5C002A02D138
:102C400004703400EEE75A7004703400EAE75A70FA
:102C50000670E7E730B583600023CCB243730133DD
:102C6000047342608373C4730D000068012C06D99D
:102C7000421C0133DBB2137003329C42F9D1FF21B5
:102C800029404B005918002340180338437030BDC9
:102C9000F8B5CE46474606000C0080B5002907D09F
:102CA0004D0003686D18033D5A195778002F04D161
:102CB0002000C0BCB946B046F8BD7900C919033937
:102CC0008846434459788946002159705170736889
:102CD0003A002100806898473368002814D04246A3
:102CE0009A18947059195B5D002B00D053700F70C7
:102CF000270049463000FFF7CBFF390002003000C3
:102D0000FFF774FF0400D3E7424641465D19AF70F8
:102D10009A185B5C002B00D06B701470E9E7C0461A
:102D2000F0B557464546DE464E46E0B50D006B0011
:102D300001685B19DF1E0400C85D83B00192CA19E7
:102D400000284CD043001B18033BCB185E78B446D8
:102D5000002E16D1019E002E3ED0E67B002E04D020
:102D600073009B19CB18033B5D70E57300282FD1CE
:102D70000023537003B0F0BCBB46B246A946A04640
:102D8000F0BD72006244033A89184A7890460022E6
:102D90004A7091465A70010032002000FFF726FF6A
:102DA00043468246002B07D05B0021684344033B27
:102DB000CB185A78002A16D1424651462000FFF718
:102DC00015FF2168019BCA19002BC6D10028CFD05E
:102DD00043001B18033BCB1800219970C8E7019BE7
:102DE000002BBAD1C4E7500080180338091848787E
:102DF000834648464870587041462000FFF7F6FE6B
:102E0000594680462000FFF743FF4146020020005C
:102E1000FFF7ECFE8046CFE7F0B557464546DE4665
:102E20004E46E0B583B00191457B04006B0000681D
:102E30005B19DF1EC15DC21900294ED04B005B1823
:102E4000033BC3185E78B446002E18D1019E002EB5
:102E500040D0E67B002E04D073009B19C318033BBF
:102E60005D70E573002931D1002328005370617330
:102E700003B0F0BCBB46B246A946A046F0BD720006
:102E80006244033A8018427890460022427091468C
:102E90005A7020003200FFF7A9FE43468246002BFD
:102EA00007D05B0021684344033BCB185A78002AC3
:102EB00017D1424651462000FFF798FE019B0100C2
:102EC0002068C219002BC4D10029CDD04B005B185B
:102ED000033BC31800209870C6E7019B002BB8D1B4
:102EE000C2E75000801803380918487883464846DE
:102EF0004870587041462000FFF778FE59468046DA
:102F00002000FFF7C5FE414602002000FFF76EFEDD
:102F10008046CEE770B5040000292CD0437B8B425D
:102F20002ED0056848004018033828188278002AF7
:102F300021D053009B18033BEA5CEE188A4202D171
:102F40001BE0002A08D053009B18033BEB185A786B
:102F50008A42F6D142785A7000230122837043706E
:102F60002000FFF7DDFE617B02002000FFF73EFE40
:102F70006073012000E0002070BD43783370EBE700
:102F800001221900FFF7CCFE60730120F4E7C04670
:102F900010B50400FEF7B4FE01002000FFF754F95D
:102FA000FF232371BFF35F8F10BDC04610B504002F
:102FB000FEF7A6FE01002000FFF746F9FF23A380DD
:102FC000BFF35F8F10BDC04610B504000120FEF7AF
:102FD000A3FE044B9C46604480002060BFF35F8FDB
:102FE00010BDC04640000034F8B5040006200D00B6
:102FF00000F07CFA002844D02A4B2B49E2185342B7
:103000005A418023DB039C469205284B62441A6098
:10301000274B1A6010008B689843FBD1214B80210D
:10302000E3185A425341234A5B0049009952062053
:1030300000F05CFA2900C00001F016FEC30921D19E
:1030400040270121260080256162A36200232C36DF
:10305000AD0135432B60062000F048FA39008000AE
:1030600001F002FE6023E26A53406E221A40802380
:103070005B0133431A60104B236310232B600D3B1D
:10308000A364F8BD0D4A934203D900230C4F0D49A8
:10309000D8E77F221040013040089F0119003F18F7
:1030A0000300CFE70080FCBF00C0004000E000400C
:1030B00000F00040C026002001030000FEFF0000D9
:1030C000C0FF3F00FFFF00002C4B2D4A70B51A6077
:1030D0002C4A2D4B2D491A6014008B689C43FBD160
:1030E0002B4D2C4EB54208D2013E761BB60808CDBA
:1030F000984723000134B342F9D100F099F8264AE9
:10310000214B1A60214A9368DB43DB01DD09002B68
:10311000F9D14022214B224C224E9A675A671A67F6
:10312000DA66B44208D223682000002B20D008348D
:10313000FFF73CFFB442F6D31B4E1C4CC022A168E3
:10314000300002F055FDA660FEF7CCFDFFF76AF8EF
:10315000FFF7A6FA164C174EB44208D2013E361BB2
:10316000B60808CC98472B0001359E42F9D170BDB6
:103170000834FFF70DFFB442D5D3DDE700E000408F
:10318000BFCDFBFEFE7F3C0000F0004000C00040D1
:10319000581C0020681C0020FFFFFF0100F00140C8
:1031A000481C0020581C00200000002000ED00E01A
:1031B000681C0020701C002000BEFDE7094A0300C7
:1031C0001068002805D00849C3188B4207D813603F
:1031D000704706480449C31810608B42F7D9012094
:1031E0004042F5E78422002000000420D42600207D
:1031F00000BEFDE70FB400B5084883B002F032FE10
:10320000049B002B07D005A91800019101F0B2FC26
:10321000034802F027FE00BEFDE7C046C42B0110A4
:103220005832011010B50148FFF7E4FFD42B01100C
:1032300030B50C2083B000F0B7F9FEF74BFD002845
:103240000ED0944B944A1A605A609A60DA601A6100
:103250005A619A61DA611A62904A5A6203B030BDCB
:103260008F4CA06700F0A8F901228E4B1A60636CA6
:10327000012BFCD103228C4B1A60894A936B012BE2
:10328000FCD101330121894A89480093043300F0BD
:1032900033F90523874A00930121874800F02CF970
:1032A000864B5A68FF2A02D8802252005A60802238
:1032B000784C7D4B21691201804D1A60002905D0A0
:1032C000606901F0D1FC01300138FDD1E0217B4B78
:1032D00002201A681140802252012A4311601968A5
:1032E000484003210140116004219A681142FCD03A
:1032F0008022802192012A4309011160802252001C
:103300005A606F4B23616F4B5968FF2900D85A6090
:103310000321644A6B4B116002399A681142FCD058
:10332000E0201A681040802252011A431060186889
:103330004840032101400220116062498A6810421E
:10334000FCD0802292011343802212011A60802255
:103350005D4B52004A6063615C4B5968FF2900D89D
:103360005A6080225A4BE1691201584D1A600029B7
:1033700005D0606901F078FC01300138FDD1E02210
:1033800052490B681A4080235B012B431A6080234B
:1033900080229B012B4312011A6080223E4B520077
:1033A0004A60E3614B4B5968FF2900D85A6080227C
:1033B000494B216A1201474D1A60002905D0606906
:1033C00001F052FC01300138FDD1E02241490B6887
:1033D0001A4080235B012B431A60802380229B01CB
:1033E0002B4312011A60802380225B004B602A4B22
:1033F000D2022362394B5968914200D25A6080222E
:10340000374B616A1201354D1A60002905D0606999
:1034100001F02AFC01300138FDD1E0222F490B6870
:103420001A4080235B012B431A60802380229B017A
:103430002B4312011A608023DB024B60174B63623F
:10344000284B5A68FF2A02D8802252005A608022F4
:10345000254BA1691201234D1A60002905D060692E
:1034600001F002FC01300138FDD1E0221D490B685A
:103470001A4080235B012B431A60802380229B012A
:103480002B4312011A6080235B004B600E4BA3613B
:10349000E4E6C04610220020006CDC021BB70000EE
:1034A000008000403CB0004030B00040002F685920
:1034B00000800240008C864700C0024030800040FF
:1034C000001BB7003C800040405973075480004007
:1034D00054B000406080004060B000406C8000400C
:1034E0006CB000404880004048B00040014B800074
:1034F000C058704710220020F0B5C646040000B541
:103500000C2090461F000E0001F0AEFB4101091A8D
:103510008D01691AC90009188901404601F0A4FB10
:10352000069B3F041A0323681743002B22DB1A4B28
:103530001A4DE21853425A4180235B019C46120304
:10354000174B62441A60174B1A601100AB6899431D
:10355000FBD1C022231D92011A4321232660A060C3
:1035600013602368002BFCDA0823E760136080BC3B
:10357000B846F0BD3F2322681340B342D7D1A368B9
:103580001B051B0D8342D2D1EE22E368D202134009
:10359000BB42CCD1EBE7C0460040FDBF00C00040BD
:1035A00000E0004000F000408023024A9B000343FB
:1035B000D362704700800540AA23064A1B011360AE
:1035C0002F230549D360054B19605368002BFCDAA3
:1035D0007047C0460040024000B0FA000060024060
:1035E0009A4200D2885470477047C046F8B5574693
:1035F0004E464546DE46E0B599460A9B07009A4688
:103600000D9B8846934615000B9E9B0710D10C9B83
:103610009E420DD29D1B14000E005D4422004B46BD
:10362000013431002020B847A542F7D1B0460B9EA7
:10363000002E27D0444675195346AA1B013E985DBB
:1036400021004B46B847002EF6D123002C009846A7
:103650000D9B9B070FD55B46E51A0C9BAB420AD925
:103660004646984622004B46310020200135B84797
:103670000134A845F6D82000F0BCBB46B246A946A6
:10368000A046F8BD2C00E3E7F0B54F464646D646C7
:10369000C0B584B098460EAB1B78129F99469446ED
:1036A0000D9C109B119EBA0725D4002E4BD19C4235
:1036B00000D3BFE001223A4092461F2C00D9B8E067
:1036C0000C9A551E302201E0202C03D001342A55DB
:1036D000A342F9D85246002A0DD0A6420BD9202C7D
:1036E00044D00C9A551E302201E0202C3ED00134EB
:1036F0002A55B442F9D1FA064DD57A053FD4002CAB
:1037000039D10F9B102B00D179E00F9B022B00D1F8
:103710008AE030230C9A012413704B46002B3FD0D3
:103720002D230C9A135501340C9B6246009303978A
:10373000434602960194FFF759FF04B0E0BCBA4635
:10374000B146A846F0BD012215003D40AA463A42C6
:103750002FD04A46002A02D10C323A4200D0013E14
:103760009C42BAD21F2CABD9202E27D92024FA068E
:10377000DAD57A0503D4A3422DD0A6422BD00F9BD5
:10378000102B32D0022B20D0202CCDD030220C9BFD
:103790001B191A700134202CC6D04B46002BBFD108
:1037A0007B070DD43B07BFD520230C9A135501345A
:1037B000BAE79C429FD21F2C00D881E720249AE7C9
:1037C0002B230C9A13550134AEE7202CACD00C9B64
:1037D0001B1901343AE0631E012C92D00F9A102A73
:1037E0002AD0022A2FD01C00D0E7BB060ED4202CF2
:1037F0009AD00C9B1A19013478231370C4E7BB06C6
:103800000DD478230C9A01241370BFE7202C00D12B
:103810008AE758220C9B1B191A700134B4E758230D
:103820000C9A01241370B1E70C9A603301241370D1
:10383000ACE7202400265EE7023CBA06E9D40C9AE5
:1038400012191C00D8E70C9A9246534462221A704F
:103850009AE7C04610B5002800D110BD02F0B2FAB8
:10386000FBE7C046F0B5DE4657464E464546E0B556
:103870009BB09B46249B89469846259B0B900C92B7
:103880004046424619009A4601F0BFFC002800D08D
:10389000D9E0012240465146774B524201F0B0FC3C
:1038A000002800D0CFE0012240465146734B5242DF
:1038B00001F090FC002800D0C5E000220023404623
:1038C000514601F087FC002800D0B9E1424653463A
:1038D0000A9209938023289ADB001A400E92289AB4
:1038E0001A4201D1062326930A9A099B1600134314
:1038F00000D0C7E0289B002500261B0500D49BE1D3
:1039000000230D93269B19000D9B994200DC9EE13C
:10391000C81A431E26938023289ADB001A430023EB
:10392000002728920D93279B0024BB4200D9DC1B63
:103930000223289A1A400E92289A134203D07B42FF
:103940007B415B421C400D9B002B07D00A980999D4
:103950002A00330001F0DDFB0A90099100220023C8
:103960004046514601F036FC002805D08020000674
:103970008446099961440991289A414B0B9D134053
:103980000493269B0A9A0293099B03940092019345
:1039900049465B4628000C9A00F08AF90400002F83
:1039A00062D0289B220098061F23C0179843631CEF
:1039B000984649465B466530A8470D9B0025DA17B7
:1039C0009C18DB0F9A465440013F01E0202D13D094
:1039D0000AAA94461F23200063440A2101355E1978
:1039E00001F042F93031317020000A2101F03CF938
:1039F00026000400092EE9D805230693002304932A
:103A00000A330393534605970B9F029312AB00931F
:103A100042465B46494638000195FFF735FE0E9B4E
:103A20000400002B20D00C9BC51A279BAB421BD94E
:103A30001E0022005B46494620200135B84701346C
:103A4000AE42F6D810E0289B42460493279B494695
:103A50000393269B0B9802935346009201935B4677
:103A60000C9A00F025F9040020001BB0F0BCBB4606
:103A7000B246A946A046F0BDFFFFEF7FFFFFEFFF74
:103A8000FFF7FFFF734B099F9C467800400D604491
:103A900001F0CEFB704A714B01F059FB704A714B3B
:103AA00001F02EFB3B03704A1B0B1A4304000D0070
:103AB000300011006D4B002201F019FB6C4A6D4B78
:103AC00001F045FB02000B002000290001F018FB6B
:103AD00001F0C6FB0D9001F0ABFB674A674B040099
:103AE0000D0001F034FB0022654B01F009FB01F0F1
:103AF000B7FB644A0600644B2000290001F027FB55
:103B0000040030000D000F9601F092FB5F4A604BFD
:103B100001F01DFB02000B002000290001F0E7FA74
:103B200002000B0006000F0001F011FB3200040040
:103B30000D003B003000390001F0E2FA0022109045
:103B40001191544B2000290001F0E3FA0022524B5E
:103B500001F0D6FA02000B002000290001F0D9FA8A
:103B600000224E4B01F0CCFA02000B00200029008D
:103B700001F0CFFA0D008021320004003B0000204C
:103B8000C90501F0B4FA02000B002000290001F081
:103B9000B7FA02000B001098119901F0BAFA00224E
:103BA000314B01F0ADFA3E4A0F9B9446634400222C
:103BB0001B0501F0CCFA05000E0002000B000A986C
:103BC000099901F007FB00280AD00D9B2800013B52
:103BD00031000D930022304B01F09BFA05000E00DE
:103BE000C6270D992B0063318F42BF4128997F4230
:103BF0000437090500D496E6334300D182E6099CD8
:103C0000284A2100284B0A9801F0F2FA002808D02F
:103C100000222100254B0A9801F0DCFA002800D090
:103C200070E6269B002B00D17DE60E9B5A1E934129
:103C3000269AD31A269376E6002304270D9372E67C
:103C400043460A9380231B065344099342E600230C
:103C5000269360E601FCFFFFFB799F501344D33F9E
:103C6000B3C8608B288AC63F0000F03F0000F83FD1
:103C700061436F63A787D23F71A379094F930A40CD
:103C80000000E03F1655B5BBB16B0240EF39FAFEBC
:103C9000422EE63F00002C40000024400000184067
:103CA000FF0300002D431CEBE2361A3F80842E41B7
:103CB000F0B54E46DE4657464546E0B597B09946C4
:103CC000209E219F229B8346984607910C923B00A1
:103CD00032003000390001F098FA002800D0A9E144
:103CE000012230003900CA4B524201F073FA002819
:103CF00000D0E1E0012230003900C64B524201F011
:103D00007FFA002800D0B7E0002230003900C24B13
:103D100001F076FA002800D099E000223000390046
:103D2000BE4B01F057FA002800D090E0002200239B
:103D30003000390001F04EFA002800D0B1E0002335
:103D40000D93249B5B0501D40623984608AB9C4643
:103D50001722002430234146624404E00134135505
:103D60000139202C01D00929F8D8884630003900C3
:103D700001F076FA4346DA00A94B05009B181A6851
:103D80005B680892099301F053FA02000B003000BF
:103D9000390001F0ACF9089A099B01F0D8F90A90B2
:103DA0000B9101F081FA824601F03EFA02000B000D
:103DB0000A980B9901F09BF900229A4B0A900B91FB
:103DC00001F01EFA002800D1C0E001239C46E24425
:103DD000504601F029FA02000B000898099901F0F9
:103DE000FFF9002802D000239A4601354346002BF4
:103DF0006AD008AB17269C4608956644554614E0E1
:103E000001235B4243440A2128009A4600F02CFF1C
:103E1000013430313719397028000A2100F024FFAD
:103E2000092D00D8D0E0D0460500202CE8D10EABFB
:103E300098460323249A1340012B00D196E02023B7
:103E4000249A01930392239A434602921EE0249BF4
:103E500058460493239B00960197039343460C9A7C
:103E6000029307994B46FFF7FDFC17B0F0BCBB4629
:103E7000B246A946A046F0BD249B5B070ED40322A0
:103E8000694B24990192039123990291009358461A
:103E90004B460C9A0799FFF7A9FBE6E70422634B10
:103EA000EFE73B0032000020002101F020F9012360
:103EB00006000F000D9344E7249B0393239B02937A
:103EC000042301935A4BE1E7280001F0B1F9020005
:103ED0000B003000390001F00AF9524B00220600B5
:103EE0000F0001F077F90EAB984600280AD10022A6
:103EF000300039004B4B01F083F9002802D1EB0769
:103F000000D50135202C94D008AA94461723280008
:103F100063440A2101341E1900F07EFE303128006E
:103F200031700A2100F078FE051EEBD10323249A9C
:103F30001340012B1BD0202C00D180E70D9B002BC0
:103F400035D02D224146631C0A5579E700220A9894
:103F50000B99344B01F03EF9002800D046E7534658
:103F6000002B51D101239C46E2443FE72024239BB0
:103F7000002BE0D00D9B002B03D1249A0C3313426D
:103F800002D0239B013B2393239BA342D3D908ABAD
:103F90009C46172230236244202C00D14FE72399FE
:103FA000013413558C42C6D0202CF8D147E7249B0E
:103FB0005B0724D4249A2300120700D440E7202270
:103FC000414601330A553BE75746089D202C00D156
:103FD0002DE7220030214046002F09D00132B15494
:103FE000202A00D123E7D3431B191B18002BF5D13E
:103FF0000EAB98462E234146541C8B5482E72B224D
:104000004146631C0A551BE7DB0700D4EEE6A9E72F
:10401000FFFFEFFFFFFFEF7F65CDCD4165CDCDC148
:10402000D82D01100000E03FE02B0110E42B01101F
:10403000F02B0110249B0393239B029303230193F2
:10404000004B23E7EC2B0110F0B5DE464E465746F9
:104050004546E0B59FB01C00289B91460993C94A8C
:10406000C94B8B4608901A60002900D118E2002342
:1040700020789A46002800D11AE226001D005C46EE
:104080000AE02A006F1C4B46089D2100A8473D000E
:1040900001363078002870D02528F2D110239B46B5
:1040A000083B9A46043B9846023B00219C46721C02
:1040B000107816000300203BDBB2102B03D8B34F5F
:1040C0009B00FB589F460300303B092B32D900234D
:1040D0000A932A2868D0002398462E283ED0030051
:1040E000683BDBB2122B1CD8A94A9B00D3589F46D1
:1040F000012301321943DBE7634601321943D7E755
:10410000434601321943D3E75B4601321943CFE7F7
:10411000534601321943CBE780235B007078194383
:1041200001360300253BDBB2532BAAD8994A9B00EA
:10413000D3589F4600270300B800C019013640003D
:10414000C018337830381A00303A0700092AF3D9FA
:104150000A901800002398462E28C0D1802370783A
:10416000DB0019430300303B721C092B00D8A1E18E
:104170002A2800D1B2E11600B1E7A346AA462C00D6
:10418000D14503D801235B424B449A464B465246E5
:1041900059460020089DA84720001FB0F0BCBB4630
:1041A000B246A946A046F0BD099B40CB0A96002E18
:1041B00003DB50780993561C8DE728380143704281
:1041C0000A9009935078561C85E7782800D1DFE1E2
:1041D000582800D14CE26F2800D14FE3622801D16A
:1041E00000F030FC10230A009A430B92692801D09A
:1041F00000F0A9FC0A230C934B0500D5D0E10B9AE3
:10420000802311009B0019408B461A4200D0A1E286
:10421000802311005B0019408A461A4200D0B6E3A1
:1042200013005B0600D5EDE2130009991B0601D4CB
:1042300000F076FC08C91BB2D8171A18424092B297
:1042400009919346DA0F1292002B09D18023102294
:104250000B99DB000B4091430B91002B00D0E4E263
:104260000B9A6123920600D541230EA91F228C468A
:10427000DBB262440A3B5F461395A34655460C9C4D
:10428000B2460D9316000AE03033DBB201357355A8
:10429000A74200D2EDE2202D00D1EAE20700210082
:1042A000380000F0E1FCCBB20929EDD90D9A944613
:1042B0006344DBB2EAE780239B0070781943013640
:1042C0002FE77078682800D1CDE1802301361943AB
:1042D00027E770786C2800D1BFE180235B00194389
:1042E00001361EE7462800D19BE10722099B049175
:1042F000073393430A9A19000392424602920CC96B
:1043000008980092019309912A004B462100FFF77B
:10431000CFFC01360500BCE62A006F1C4B46089D09
:1043200021002520A84701363D00B2E68B0700D4C6
:10433000ADE1099B2A009A466B1C9846534601CB77
:1043400021009A46089F4B46C0B2B8470A9B9C463C
:104350006544012B00D886E2089B4746B0462600FC
:104360004C4699463A002300013731002020C847C7
:10437000AF42F7D1A1465346340046460993013671
:1043800087E6C0464940001088260020F82B01101F
:104390003C2C0110882C0110099B04CB9B46434602
:1043A0000992002B00D1C6E013789C46002B00D167
:1043B000BDE34346013B099A0133D0180A9F13001D
:1043C00001E0834203D05A780133002AF9D1099AD7
:1043D0000A979B1A0B9380230A00DB001A400C9269
:1043E000194204D00B9B434501D943460B9302234A
:1043F0001A000A400D920B4200D187E16046002866
:1044000000D168E10C9B002B00D10DE1A844C2460D
:10441000099B57465B1B9846089BB2462A0026001C
:104420004C46994609E023003100551CC8474346D5
:10443000585D002800D126E12A009742F3D1A14619
:104440003D00340056460D9B002B00D043E15B46F7
:10445000013609931DE6099B1A0008CA9246002BF3
:1044600048D0212211438B460EA884461F21614467
:10447000099500220F27A4460D0002E0202A0CD047
:104480000B003C001C4020003730092C00D80738B6
:104490000132A85419090F2BF0D86446099D32E067
:1044A000DC4B2078089300239A46002800D0E4E5EE
:1044B000002465E6434606000A9F9800C0180132B2
:1044C000400080191678030030003038303B09284E
:1044D000F3D93000984616000A9700E6099B023689
:1044E00004CB9046D2434046D217104080460993F1
:1044F0003078F4E5102208009043113210438346CF
:1045000000224905B0D55B46069308230593434630
:104510000493102303930023029316AB019200939C
:104520002A004B4621000898FFF7AEF853460500D5
:1045300001360993ADE513789C46002B00D1F7E2D4
:1045400002235B4237E7202302009A43472A04D123
:1045500080231B01194302239843452801D12023BE
:1045600019430722099B0491073393430A9A1900C0
:104570000392424602920CC9089800920193099155
:104580002A004B462100FFF76DF90136050080E552
:1045900010230C930C230A009A430B924B0503D56E
:1045A00001230B9A9A430B92692800D127E66428CD
:1045B00000D124E60B9A802311009B0019408B4602
:1045C0001A4200D066E1802311005B0019408A4640
:1045D0001A4200D039E213005B0600D53CE113001B
:1045E0001B0600D4A6E2099B04CB1204120C9346CE
:1045F00009935B46002B00D09AE10B9A103311000F
:1046000099430B91520500D492E100239A460B9BEB
:1046100006930A9B0593434604930C9B0393002344
:104620000CE12023194360E6099B0A9A5B1B98461C
:104630004B4691461F00B2462600089C2A003B00CC
:104640003100A04743460135585D0028F6D14A465F
:104650003400B94656460A92F5E6C0239B00B0786E
:10466000194302365DE5C023B0781943023658E598
:104670000C230A009A4314331A43103B0B920C93F9
:104680004B058DD496E7A14634005646DBE60A9AE0
:10469000012A00D853E26B1E9F18089BB0462600E3
:1046A0004C4699462A002300013531002020C84796
:1046B000BD42F7D1A14634004646099B3A0001CBE2
:1046C000210098467D1C4B46089FC0B2B847434620
:1046D00001360993DDE40B9B0A99A846994200D85C
:1046E000B5E68C466544ED1A089B4746B046260061
:1046F0004C4699463A002300013731002020C84734
:10470000AF42F7D1A14634004646A0E60B9A0A987C
:10471000531C904200D814E243199B1A1F00089BB7
:10472000B24626004C4699462A0023000135310046
:104730002020C847BD42F7D10A9BA14601330B9305
:10474000099B34001B7856469C466046002800D0E2
:1047500058E67CE60722099B0733934301329446CF
:104760009C4462465F6809921A68FB171093119384
:1047700010981199030053400E930B007B400F9348
:1047800094460E9A0F9B121A8B410E920F93FB0FB9
:104790006246129300233A439B463DD00B9A612315
:1047A000920600D541230022DBB20EA90A3B8C46BB
:1047B00092460D9343461F32624413951596554613
:1047C0000E9E0F9FA24690460C9C14930CE0303234
:1047D000D2B2434601355A55BB4500D18AE1202D5E
:1047E00000D18AE106000F002200002330003900CA
:1047F00000F07CFAD2B2092AE9D90D9B9C466244AA
:10480000D2B2E6E7FF23099904C913401A000991BF
:1048100017E5C046E93500100B9A10331100994393
:104820000B915205BAD500239A460B9B06930A9B1F
:104830000593434604930C9B0393129B02935346A8
:10484000019316AB2A00009321004B460898FEF70F
:104850001BFF013605001CE4FF22099B02CB11401F
:104860008B460993C5E65346454609930136FFF743
:1048700010FC56465C46AA46139DD6E708230C93C7
:104880000B910B99642800D084E60B9B5B0500D547
:1048900086E6B4E40722099B07339343013294462A
:1048A0009C44624609921A685B6810009B4613009C
:1048B0005A46134307D10B9A1033110099430B91B9
:1048C000520500D5A1E60B9A6123920600D541233B
:1048D0000022DBB20EA90A3B8C4692460D9343465A
:1048E0001F3262445F461295A34655460400B24605
:1048F00090460C9E13930DE03032D2B24346013500
:104900005A550023BB4200D100E1202D00D100E127
:1049100004000F00320000232000390000F0E6F907
:10492000D2B2092AE8D90D9B9C466244D2B2E5E78F
:104930000B9A6123920600D54123DBB20EA90A3BF4
:104940001F228C460D93230062445C46129517008B
:1049500055469B46B2460C9E08E03033DBB201352B
:104960007B55B4420ED3202D0CD004003100200022
:1049700000F07AF9CBB20929EFD90D9A9446634435
:10498000DBB2ECE756465C46AA46129D3FE6099B21
:104990001A0008CAD91713925A184A409246DA0FD9
:1049A0001292002B08D1802310220B99DB000B40C0
:1049B00091430B91002B2BD10B9A6123920600D5CA
:1049C00041230EAA1F279446DBB20A3B0D9567448C
:1049D0005D460993A3465446B2460C9E08E0303328
:1049E000DBB201357B55B4420ED3202D0CD0040030
:1049F0003100200000F038F9CBB20929EFD9099A2B
:104A000094466344DBB2ECE756465C46AB460D9DEC
:104A10000B9B2A0006930A9B2100059343460493AF
:104A20000C9B08980393129B013602935B460193FB
:104A300016AB00934B46FEF727FE139B0500099328
:104A4000FFF727FB02230C931AE7099B04CB92463E
:104A50001293002A08D1802310220B99DB000B400F
:104A600091430B91002B2BD10B9A6123920600D519
:104A700041230EAA1F279446DBB20A3B0D956744DB
:104A80005D460993A3465446B2460C9E08E0303377
:104A9000DBB201357B55B4420ED3202D0CD004007F
:104AA0003100200000F0E0F8CBB20929EFD9099AD3
:104AB00094466344DBB2ECE756465C46AB460D9D3C
:104AC0000B9B2A0006930A9B2100059343460493FF
:104AD0000C9B08980393002302935B46019316AB4B
:104AE00000934B46FEF7D0FD129B0500099301365B
:104AF000FFF7CFFAB44200D871E6149B54460E96E5
:104B00000F97AA469846159E139D8EE6A64200D89A
:104B1000FBE6139B56469846AA465C46129D76E5F0
:104B200008C9D8171A1842400991FFF78AFB0023D9
:104B30000B9350E4099B04CB9346099359E52F004E
:104B4000BBE50B9301E6063B0C939AE60EB40122FB
:104B500010B585B007AC08CC01000094524204485F
:104B60000394FFF771FA05B010BC08BC03B01847F6
:104B7000E135001010B5094A0300146884B0002C18
:104B800008D0012200910648524203A9A047012003
:104B900004B010BD01F066F90020F9E78826002076
:104BA0005538001001480421014B1847901300208C
:104BB000D54B0010142310B50100188804331B884E
:104BC000984710BD162310B50100188802331B88C2
:104BD000984710BDF8B54746CE4680B50F1E19D090
:104BE00014239946043304000025012698464B46B9
:104BF0001888434621681B88984701C4431E984182
:104C0000013540420640AF42F1D13000C0BCB94648
:104C1000B046F8BD0126F8E7124A936F9B0815D2FB
:104C20009066D166002905D0FFE7FFE7FFE7516FE7
:104C3000106F704704B580210906C2175140002843
:104C400000D0C8430CF09CFE002104BDF0B5146EEA
:104C5000556E576F166FFFF7E3FF1466556657677B
:104C60001667F0BD000000D0114A936F9B0813D265
:104C700010665166002905D0FFE7FFE7FFE7516F97
:104C8000106F704704B5002801D00020C0430CF01D
:104C900077FE002104BDC046F0B5146E556E576F07
:104CA000166FFFF7E5FF1466556657671667F0BD88
:104CB000000000D094464E4A926F9208624601D29C
:104CC00030E0C046F0B54A4EB56F6D08FCD3346E87
:104CD000756E776F366F00F025F89446444A146677
:104CE0005566576716676246F0BDC0469446404A0F
:104CF000926F9208624601D258E0C046F0B53C4E31
:104D0000B56F6D08FCD3346E756E776F366F00F03B
:104D10004DF89446364A14665566576716676246DC
:104D2000F0BDC046002B24DB11D000293EDA00B5CF
:104D3000C943404200D1013100F038F8C943404234
:104D400000D10131DB43524200D1013300BD002AC2
:104D5000EBD1002801D1002905D00020C90FC907D7
:104D600001D1C043410800B50CF0D2FD0022002360
:104D700000BD00B500290ADBDB43524200D10133FC
:104D800000F014F8C943404200D1013100BDC943CD
:104D9000404200D10131DB43524200D1013300F0E7
:104DA00005F8DB43524200D1013300BD002923D175
:104DB000002B18D1002A0CD0BC460D4F38667A66FD
:104DC00000210023FFE7FFE7FFE77A6F386F6746B0
:104DD0007047002801D00748010000B50CF098FD8D
:104DE0000022002300BD02000B00002000217047BC
:104DF000000000D0FFFFFFFF002B00D0BFE0130C2E
:104E000028D1002AE7D080B4114F39667A66FFE7CF
:104E1000FFE730B4040C7B6F396F1B0423433B6600
:104E20007A66FFE7FFE7FFE7C04684B27B6F3D6F1E
:104E30001B0423433B667A66FFE7FFE7C046002377
:104E40002C042D0C7A6F386F00196941B0BC704783
:104E5000000000D0F0B594460025140E01D11202D6
:104E60000835140F01D112010435940F01D19200BD
:104E70000235D40F01D152000135D40B0134254F36
:104E80007C66254C3C660E0C93B2FFE7FFE7FFE71C
:104E90003C6F6643360C7703BE467343DF0B5B04FF
:104EA000C01AB941130C7343DB18C91ACE08664304
:104EB000360CB64493B273431F0F1B01C01AB9419D
:104EC000130C73431F0B1B05C01AB941860D8F02CB
:104ED0003E436643360C092D24DB520A7243801A86
:104EE0007703460A6643360C16235B1BDE40DF4021
:104EF000BF1964466643821B7046043506330100C1
:104F0000D940A840C01900D30131A24206D20023E3
:104F1000F0BD0000000000D0FFFFFFFF121B0130BA
:104F2000F3D3F1E709277F1BFE406446A2B2724328
:104F3000801A00D20139220C7243130C1204821A17
:104F400099410B007046043513370100F940A84021
:104F5000801900D30131002B02D1A2420AD2F0BD48
:104F6000013000D30131121BFAD2013BF8D1A24229
:104F700000D2F0BD013000D30131121BF7E7F0B5CC
:104F80001C0C00D080E00CB400251C0A04D11B02CC
:104F9000160E3343120208351C0B04D11B01160FE9
:104FA0003343120104359C0B04D19B00960F33430D
:104FB00092000235DC0B02D192185B4101351C00D6
:104FC000971864410134464F7C66464C3C660E0C93
:104FD000FFE7FFE7FFE7C0463C6F6643360C770309
:104FE000BE4697B27743C01B00D20139C01B00D226
:104FF00001399FB27743C91BC91B170C77437E0445
:10500000FF0B801BB941CE086643360C0C2D33DBF9
:10501000B644120B1F053A431B0B97B27743C01BD4
:1050200000D201399FB27743C91B170C77433E0466
:105030003F0C801BB941860D8F023E4366432927F2
:105040007F1BFE400C3D7746AF40BF1930BCA2B27B
:10505000ABB272437343801A9941220C7243130C12
:105060001204801A994102000B000137001BA9416C
:10507000F9D2781E0021F0BD0C277F1BFE40774639
:105080007F0BAF40FF19E0E700245D1C07D0144FF1
:105090007D663966FFE7FFE7FFE7FFE73C6F95B204
:1050A0009EB265436643401BB141150C1E0C65431F
:1050B000664336042F0C3E432D04401BB1419942F8
:1050C00004D202000B0020000021F0BD01D190426B
:1050D000F7D3801A994101349942F2D3F6E70000E0
:1050E000000000D0FFFFFFFF48404140484018B497
:1050F0001B4B5B68FC46019308BD04DF9F53001007
:1051000018B4174B1B68FC46019308BD00DFA95378
:1051100000109446134A926F920809D2624618B45E
:105120000F4BDB68FC46019308BD0CDF6156001095
:105130000C4AF0B5146E556E576F166F6246FFF746
:10514000EEFF084A1466556657671667F0BD18B437
:10515000034B9B68FC46019308BD08DF0555001012
:10516000701D0020000000D0FFB55040424050406C
:1051700059404B40594000E0FFB5154F4C00640DBD
:1051800003D0BC4204D10C0314D80020090D09053A
:105190005C00640D03D0BC4204D11C030AD8002279
:1051A0001B0D1B0501264B4009D44B4003D58B42F8
:1051B00000D18242FFBD9942FCD19042FFBD0B431A
:1051C000DB1803431343F5D0C9434918FFBD000062
:1051D000FF07000000B5FFF7CFFF804100BDC046CC
:1051E00000B5FFF7C9FF01D9002000BD012000BDB7
:1051F00000B5FFF7B9FF01D9002000BD012000BDB7
:1052000000B5FFF7B1FF804100BD012040054A0015
:10521000121804D85A00121801D800207047012033
:1052200070470020704700000021002805D170471A
:10523000C1174840401AFAD0C90713B5064B1B687E
:1052400098470CBC441CA2401005120B0349091BD3
:1052500009051943114310BDA82600201F040000B2
:1052600010B54C00620D8023D218DB00D21A5B050A
:105270007E2A10DD9E3A13DACC1709034908194338
:105280005242D140640001341532202A05DAD04060
:105290000843604310BD002010BD0846604310BDA8
:1052A000C80FC018013810BD18B4044B5B6AFC4627
:1052B000019308BD24DFB95900100000701D0020C3
:1052C00018B4044B9B69FC46019308BD18DF2D58A8
:1052D00000100000701D0020132370B51D78012DF3
:1052E00015D010DD1C48FFF76DFC1C4C010080221E
:1052F000200000F07DFC022D06D01948FFF75AFC73
:10530000184B186070BD154C174BA364F5E7164B8E
:10531000124C23606360A360E36023616361A36157
:10532000E36123626362A362E36223636363A36353
:10533000E36323646364A364E36423656365A36533
:10534000E36523666366A366E36623676367A36713
:10535000E367A364D1E7C04653440000701D0020FA
:105360004C330000A82600206D53001007B560469E
:1053700001880A0A0230DF2AFAD1C9B2820804D3AE
:10538000028840880004104300E00068014A505041
:10539000039007BD701D00200FB403BC0CBCF0B51A
:1053A0000124E407634000E0F0B50C0DCF0F661E4A
:1053B0003605891B640503D3C943404200D301313C
:1053C000640D03D0661CF60A07D0E41B00207F00A2
:1053D000791C89078912803C24031D0DDF0F6E1E86
:1053E00036059B1B6D0503D3DB43524200D30133CB
:1053F0006D0D03D06E1CF60A07D0ED1B00227F0056
:105400007B1C9B079B12803D2D032F1B661B58D4D2
:10541000A446202E46DA20371400BC401D00BD40B3
:10542000F24033412A4380185941CB0F05D0C9437C
:10543000C043002264425041514162464D0D28D183
:105440000D0D07D100281FD0241940414941013AD0
:105450000D0DF9D0640006D3013000D30131002CCA
:1054600001D140084000013A0BD4941CE40A04D155
:1054700012051144DB071944F0BDD907204B19432D
:1054800000E0D9070020F0BD0029DDD1002CDBD1E0
:10549000F0BD0132C6074008CD0728434908002E59
:1054A000E1D0D9E73C2E29DA203E40371400BC4039
:1054B00000D00124F24014431A00BB401C43D31710
:1054C000ACE7AC46202F08DA20360400B4400D00CB
:1054D000B540F84039412843A5E73C2F0CDA203F7E
:1054E00040360400B44000D00124F84004430800D2
:1054F000B1400C43C117EAE710001900002494E7FB
:105500000000F07FF0B50C0D661E3605891BE60A1B
:105510006405640D02D0651CED0A04D00020012151
:105520000905803C2403A4461C0D671E3F05DB1BB8
:10553000E70A6405640D02D0651CED0A04D0002260
:1055400001231B05803C24037740644497B484B254
:1055500096B27443070C7E43150C6F4380B26843C8
:10556000361802D3012000043F183004350C00190E
:105570007D41844688B29AB250430C0C62431F0CA2
:105580007C438EB27E43921902D301263604A419BD
:105590001604170C3618674101BC81B29AB2514308
:1055A000040C62431B0C5C4380B25843121802D3B4
:1055B0000120000424181004130C401863412D1816
:1055C0005E410020474106BC88B293B258430C0CA0
:1055D0006343120C544389B251435B1802D3012137
:1055E0000904641819041A0C091862416D1856410F
:1055F0000020474118BCF902720D1143F0026A0DF8
:105600001043ED020A0D03D16D1940414941013BA0
:10561000124E9B1B7600B3420ED26D0007D30130B1
:10562000002671416646354301D1400840001B0504
:10563000C918E4072144F0BD0BDA013306D101306B
:1056400004D101314F0D01D04908F2E7E1070020F4
:10565000F0BD013631050020EBE70000FF0300003C
:10566000F0B51C0D671E3F05DB1BE70A6405640DE2
:1056700002D0661CF60A04D0002201231B05803CE0
:105680002403D0252D060026F6432E661E096E66DD
:10569000CE0FF619B44649004F0D02D07E1CF60A13
:1056A00003D000200021403F3F033E1BB600B4441E
:1056B000013F7F05C91B49082E6F013676089C0201
:1056C000950D25437543ED137543AD1301356D10ED
:1056D000F603761B0CB4CC02450D2C43A2B2B3B238
:1056E0005A43270C7B43350C6F43A4B26C431B1900
:1056F00002D3012424043F191C041D0CA4187D416D
:1057000024196D41009A91B2ACB26143170C7C43ED
:105710002B0C5F4392B25A43A41802D30122120405
:10572000BF182204230C52187B41019C6C431B19A7
:10573000520ED9010A434401A01A81B2B2B25143B8
:1057400003145A43360C734387B27743D617D219E2
:1057500000277E4136049B191704160C7F185E4102
:105760007316ED18F301002680337541A90F06D199
:105770006400690AE8055B0A184309D22FE0042295
:10578000944480337541A90AA8059B0A184326D37F
:10579000404149412404009A019B0D005543641B7C
:1057A0004343E41A95B286B27543170C7E43030C4B
:1057B0005F4392B25A43B61802D301221204BF18B3
:1057C0003204330C52197B4152429C41002C02D4CA
:1057D0000022013051414008CA071043490802B075
:1057E0006246D7079210084BD218084B9A4203D250
:1057F00012058918C919F0BD0020002A01DC390002
:10580000F0BD01331905F5E7FD030000FE070000B8
:1058100007DA002107E0C90FC907520D03D0C912EA
:1058200001E04C49090500207047C0464A00F2D209
:10583000520D013A484B9A42EAD2F0B51405091BC1
:10584000520801D3001849419B08D218120594460A
:1058500040A44A0CA25C0B09534353431B1353430C
:105860005B131202D21A13005B435B0B4C086343B9
:10587000DB135343DB1501335B10D21A130CD21A1E
:1058800013005B438902840D21438DB29EB27543A0
:105890000F0C7E431B0C5F438CB25C43361902D362
:1058A000012424043F193404330C64197B419D0105
:1058B000A40E2C432034A5B25543241454432D0C7C
:1058C0006419A411D203121B95B28EB27543170C42
:1058D0007E430C0C674393B26343F61802D3012353
:1058E0001B04FF183304340C5B197C41DB18644142
:1058F000DB18002363419EB276439DB21F0C7D43AB
:105900007F436C04ED0BA4197D4106028F08361B02
:10591000AF417D07F6086E41B4B295B26C433714BF
:105920007D43120C5743B6B25643EA17AD19002611
:1059300072411204BF182E042A0C36197A4108321B
:10594000521117D29D0A9C05D11710196941614463
:10595000F0BD0000FF070000FE070000F8EBDFD6F7
:10596000CDC5BEB8B2ADA8A4A09C9995928F8D8AE2
:105970008885838152415D0ADC05D11714194D4198
:105980002B006343A6B27643A2B2270C7A437F432F
:105990005104D20B89197A41D218D2188005494294
:1059A000904102D4002301345D4160086908ED078D
:1059B00028436144F0BDC046002200B5203200F00B
:1059C00004F8080000BD000000220B150AD410B531
:1059D000944600F031F81414013400DA0021CB179A
:1059E000144C20470020002170476244343A0CD404
:1059F0000C2A07DA04009140904052422032D440F1
:105A0000214310BDD843D94310BD203207D40C46E2
:105A10009440524220321141D040204310BD080032
:105A2000C917203203D452422032104110BD180051
:105A3000190010BDEB5900100A0DCC0F531E1B05A9
:105A4000C91A520503D3C943404200D30131520D54
:105A500003D0531CDB0A07D0121B00206400611C1A
:105A600089078912803A1203014BD21A704700004D
:105A7000FF03000051434343C9188C46110C83B205
:105A80004B4310B4040C614392B280B25043624362
:105A90001C041B0C001910BC59411304120CC01833
:105AA0005141614470470000132310B512481C781F
:105AB000FFF788F80100012C0AD003DD80220F488F
:105AC00000F096F80E48FFF775F80E4B186010BD01
:105AD0000A4C5422200000F08BF80B4B6365A36541
